{
    "_format": "hh-sol-artifact-1",
    "contractName": "Marketplace",
    "sourceName": "contracts/Marketplace.sol",
    "abi": [
        {
            "inputs": [
                {
                    "internalType": "address",
                    "name": "_tokenAddress",
                    "type": "address"
                }
            ],
            "stateMutability": "nonpayable",
            "type": "constructor"
        },
        {
            "anonymous": false,
            "inputs": [
                {
                    "indexed": true,
                    "internalType": "address",
                    "name": "owner",
                    "type": "address"
                },
                {
                    "indexed": true,
                    "internalType": "address",
                    "name": "approved",
                    "type": "address"
                },
                {
                    "indexed": true,
                    "internalType": "uint256",
                    "name": "tokenId",
                    "type": "uint256"
                }
            ],
            "name": "Approval",
            "type": "event"
        },
        {
            "anonymous": false,
            "inputs": [
                {
                    "indexed": true,
                    "internalType": "address",
                    "name": "owner",
                    "type": "address"
                },
                {
                    "indexed": true,
                    "internalType": "address",
                    "name": "operator",
                    "type": "address"
                },
                {
                    "indexed": false,
                    "internalType": "bool",
                    "name": "approved",
                    "type": "bool"
                }
            ],
            "name": "ApprovalForAll",
            "type": "event"
        },
        {
            "anonymous": false,
            "inputs": [
                {
                    "indexed": true,
                    "internalType": "bytes32",
                    "name": "offerId",
                    "type": "bytes32"
                },
                {
                    "indexed": true,
                    "internalType": "address",
                    "name": "buyer",
                    "type": "address"
                }
            ],
            "name": "BuyOffer",
            "type": "event"
        },
        {
            "anonymous": false,
            "inputs": [
                {
                    "indexed": true,
                    "internalType": "bytes32",
                    "name": "offerId",
                    "type": "bytes32"
                }
            ],
            "name": "CancelOffer",
            "type": "event"
        },
        {
            "anonymous": false,
            "inputs": [
                {
                    "indexed": true,
                    "internalType": "bytes32",
                    "name": "offerId",
                    "type": "bytes32"
                },
                {
                    "indexed": true,
                    "internalType": "address",
                    "name": "seller",
                    "type": "address"
                },
                {
                    "indexed": true,
                    "internalType": "uint256",
                    "name": "tokenId",
                    "type": "uint256"
                },
                {
                    "indexed": false,
                    "internalType": "string",
                    "name": "tokenURI",
                    "type": "string"
                },
                {
                    "indexed": false,
                    "internalType": "uint256",
                    "name": "price",
                    "type": "uint256"
                },
                {
                    "indexed": false,
                    "internalType": "string",
                    "name": "itemName",
                    "type": "string"
                },
                {
                    "indexed": false,
                    "internalType": "string",
                    "name": "itemImage",
                    "type": "string"
                }
            ],
            "name": "CreateOffer",
            "type": "event"
        },
        {
            "anonymous": false,
            "inputs": [
                {
                    "indexed": true,
                    "internalType": "address",
                    "name": "sender",
                    "type": "address"
                },
                {
                    "indexed": false,
                    "internalType": "uint256",
                    "name": "amount",
                    "type": "uint256"
                }
            ],
            "name": "Deposit",
            "type": "event"
        },
        {
            "anonymous": false,
            "inputs": [
                {
                    "indexed": true,
                    "internalType": "address",
                    "name": "previousOwner",
                    "type": "address"
                },
                {
                    "indexed": true,
                    "internalType": "address",
                    "name": "newOwner",
                    "type": "address"
                }
            ],
            "name": "OwnershipTransferred",
            "type": "event"
        },
        {
            "anonymous": false,
            "inputs": [
                {
                    "indexed": true,
                    "internalType": "address",
                    "name": "from",
                    "type": "address"
                },
                {
                    "indexed": true,
                    "internalType": "address",
                    "name": "to",
                    "type": "address"
                },
                {
                    "indexed": true,
                    "internalType": "uint256",
                    "name": "tokenId",
                    "type": "uint256"
                }
            ],
            "name": "Transfer",
            "type": "event"
        },
        {
            "anonymous": false,
            "inputs": [
                {
                    "indexed": true,
                    "internalType": "address",
                    "name": "sender",
                    "type": "address"
                },
                {
                    "indexed": false,
                    "internalType": "uint256",
                    "name": "amount",
                    "type": "uint256"
                }
            ],
            "name": "Withdraw",
            "type": "event"
        },
        {
            "inputs": [
                {
                    "internalType": "address",
                    "name": "to",
                    "type": "address"
                },
                {
                    "internalType": "uint256",
                    "name": "tokenId",
                    "type": "uint256"
                }
            ],
            "name": "approve",
            "outputs": [],
            "stateMutability": "nonpayable",
            "type": "function"
        },
        {
            "inputs": [
                {
                    "internalType": "address",
                    "name": "owner",
                    "type": "address"
                }
            ],
            "name": "balanceOf",
            "outputs": [
                {
                    "internalType": "uint256",
                    "name": "",
                    "type": "uint256"
                }
            ],
            "stateMutability": "view",
            "type": "function"
        },
        {
            "inputs": [
                {
                    "internalType": "bytes32",
                    "name": "offerId",
                    "type": "bytes32"
                },
                {
                    "internalType": "uint256",
                    "name": "deadline",
                    "type": "uint256"
                },
                {
                    "internalType": "uint8",
                    "name": "v",
                    "type": "uint8"
                },
                {
                    "internalType": "bytes32",
                    "name": "r",
                    "type": "bytes32"
                },
                {
                    "internalType": "bytes32",
                    "name": "s",
                    "type": "bytes32"
                }
            ],
            "name": "buyOffer",
            "outputs": [],
            "stateMutability": "nonpayable",
            "type": "function"
        },
        {
            "inputs": [
                {
                    "internalType": "bytes32",
                    "name": "offerId",
                    "type": "bytes32"
                }
            ],
            "name": "cancelOffer",
            "outputs": [],
            "stateMutability": "nonpayable",
            "type": "function"
        },
        {
            "inputs": [
                {
                    "internalType": "uint256",
                    "name": "price",
                    "type": "uint256"
                },
                {
                    "internalType": "string",
                    "name": "itemName",
                    "type": "string"
                },
                {
                    "internalType": "string",
                    "name": "itemImage",
                    "type": "string"
                },
                {
                    "internalType": "string",
                    "name": "tokenURI",
                    "type": "string"
                }
            ],
            "name": "createOffer",
            "outputs": [],
            "stateMutability": "nonpayable",
            "type": "function"
        },
        {
            "inputs": [],
            "name": "deposit",
            "outputs": [],
            "stateMutability": "payable",
            "type": "function"
        },
        {
            "inputs": [
                {
                    "internalType": "uint256",
                    "name": "tokenId",
                    "type": "uint256"
                }
            ],
            "name": "getApproved",
            "outputs": [
                {
                    "internalType": "address",
                    "name": "",
                    "type": "address"
                }
            ],
            "stateMutability": "view",
            "type": "function"
        },
        {
            "inputs": [
                {
                    "internalType": "address",
                    "name": "owner",
                    "type": "address"
                },
                {
                    "internalType": "address",
                    "name": "operator",
                    "type": "address"
                }
            ],
            "name": "isApprovedForAll",
            "outputs": [
                {
                    "internalType": "bool",
                    "name": "",
                    "type": "bool"
                }
            ],
            "stateMutability": "view",
            "type": "function"
        },
        {
            "inputs": [],
            "name": "name",
            "outputs": [
                {
                    "internalType": "string",
                    "name": "",
                    "type": "string"
                }
            ],
            "stateMutability": "view",
            "type": "function"
        },
        {
            "inputs": [],
            "name": "owner",
            "outputs": [
                {
                    "internalType": "address",
                    "name": "",
                    "type": "address"
                }
            ],
            "stateMutability": "view",
            "type": "function"
        },
        {
            "inputs": [
                {
                    "internalType": "uint256",
                    "name": "tokenId",
                    "type": "uint256"
                }
            ],
            "name": "ownerOf",
            "outputs": [
                {
                    "internalType": "address",
                    "name": "",
                    "type": "address"
                }
            ],
            "stateMutability": "view",
            "type": "function"
        },
        {
            "inputs": [],
            "name": "renounceOwnership",
            "outputs": [],
            "stateMutability": "nonpayable",
            "type": "function"
        },
        {
            "inputs": [
                {
                    "internalType": "address",
                    "name": "from",
                    "type": "address"
                },
                {
                    "internalType": "address",
                    "name": "to",
                    "type": "address"
                },
                {
                    "internalType": "uint256",
                    "name": "tokenId",
                    "type": "uint256"
                }
            ],
            "name": "safeTransferFrom",
            "outputs": [],
            "stateMutability": "nonpayable",
            "type": "function"
        },
        {
            "inputs": [
                {
                    "internalType": "address",
                    "name": "from",
                    "type": "address"
                },
                {
                    "internalType": "address",
                    "name": "to",
                    "type": "address"
                },
                {
                    "internalType": "uint256",
                    "name": "tokenId",
                    "type": "uint256"
                },
                {
                    "internalType": "bytes",
                    "name": "data",
                    "type": "bytes"
                }
            ],
            "name": "safeTransferFrom",
            "outputs": [],
            "stateMutability": "nonpayable",
            "type": "function"
        },
        {
            "inputs": [
                {
                    "internalType": "address",
                    "name": "operator",
                    "type": "address"
                },
                {
                    "internalType": "bool",
                    "name": "approved",
                    "type": "bool"
                }
            ],
            "name": "setApprovalForAll",
            "outputs": [],
            "stateMutability": "nonpayable",
            "type": "function"
        },
        {
            "inputs": [
                {
                    "internalType": "address",
                    "name": "_tokenAddress",
                    "type": "address"
                }
            ],
            "name": "setS2LContract",
            "outputs": [],
            "stateMutability": "nonpayable",
            "type": "function"
        },
        {
            "inputs": [
                {
                    "internalType": "bytes4",
                    "name": "interfaceId",
                    "type": "bytes4"
                }
            ],
            "name": "supportsInterface",
            "outputs": [
                {
                    "internalType": "bool",
                    "name": "",
                    "type": "bool"
                }
            ],
            "stateMutability": "view",
            "type": "function"
        },
        {
            "inputs": [],
            "name": "symbol",
            "outputs": [
                {
                    "internalType": "string",
                    "name": "",
                    "type": "string"
                }
            ],
            "stateMutability": "view",
            "type": "function"
        },
        {
            "inputs": [
                {
                    "internalType": "uint256",
                    "name": "tokenId",
                    "type": "uint256"
                }
            ],
            "name": "tokenURI",
            "outputs": [
                {
                    "internalType": "string",
                    "name": "",
                    "type": "string"
                }
            ],
            "stateMutability": "view",
            "type": "function"
        },
        {
            "inputs": [
                {
                    "internalType": "address",
                    "name": "from",
                    "type": "address"
                },
                {
                    "internalType": "address",
                    "name": "to",
                    "type": "address"
                },
                {
                    "internalType": "uint256",
                    "name": "tokenId",
                    "type": "uint256"
                }
            ],
            "name": "transferFrom",
            "outputs": [],
            "stateMutability": "nonpayable",
            "type": "function"
        },
        {
            "inputs": [
                {
                    "internalType": "address",
                    "name": "newOwner",
                    "type": "address"
                }
            ],
            "name": "transferOwnership",
            "outputs": [],
            "stateMutability": "nonpayable",
            "type": "function"
        },
        {
            "inputs": [
                {
                    "internalType": "uint256",
                    "name": "amount",
                    "type": "uint256"
                }
            ],
            "name": "withdraw",
            "outputs": [],
            "stateMutability": "nonpayable",
            "type": "function"
        }
    ],
    "bytecode": "0x60806040526000600a553480156200001657600080fd5b5060405162002b1538038062002b158339810160408190526200003991620001e0565b6040518060400160405280600981526020016813d999995c8813919560ba1b8152506040518060400160405280600381526020016213919560ea1b815250620000916200008b620000e660201b60201c565b620000ea565b8151620000a69060019060208501906200013a565b508051620000bc9060029060208401906200013a565b5050600980546001600160a01b0319166001600160a01b039390931692909217909155506200024f565b3390565b600080546001600160a01b038381166001600160a01b0319831681178455604051919092169283917f8be0079c531659141344cd1fd0a4f28419497f9722a3daafe3b4186f6b6457e09190a35050565b828054620001489062000212565b90600052602060002090601f0160209004810192826200016c5760008555620001b7565b82601f106200018757805160ff1916838001178555620001b7565b82800160010185558215620001b7579182015b82811115620001b75782518255916020019190600101906200019a565b50620001c5929150620001c9565b5090565b5b80821115620001c55760008155600101620001ca565b600060208284031215620001f357600080fd5b81516001600160a01b03811681146200020b57600080fd5b9392505050565b600181811c908216806200022757607f821691505b602082108114156200024957634e487b7160e01b600052602260045260246000fd5b50919050565b6128b6806200025f6000396000f3fe6080604052600436106101355760003560e01c80638da5cb5b116100ab578063c87b56dd1161006f578063c87b56dd14610361578063d0e30db014610381578063e985e9c514610389578063f2fde38b146103d2578063f58614c8146103f2578063f952279e1461041257600080fd5b80638da5cb5b146102ce57806395d89b41146102ec578063a22cb46514610301578063b88d4fde14610321578063c74d94981461034157600080fd5b806323b872dd116100fd57806323b872dd1461020b5780632e1a7d4d1461022b57806342842e0e1461024b5780636352211e1461026b57806370a082311461028b578063715018a6146102b957600080fd5b806301ffc9a71461013a57806306fdde031461016f578063081812fc14610191578063095ea7b3146101c957806311f94e39146101eb575b600080fd5b34801561014657600080fd5b5061015a610155366004612200565b610432565b60405190151581526020015b60405180910390f35b34801561017b57600080fd5b50610184610484565b6040516101669190612275565b34801561019d57600080fd5b506101b16101ac366004612288565b610516565b6040516001600160a01b039091168152602001610166565b3480156101d557600080fd5b506101e96101e43660046122bd565b61053d565b005b3480156101f757600080fd5b506101e96102063660046122e7565b610658565b34801561021757600080fd5b506101e9610226366004612336565b610b49565b34801561023757600080fd5b506101e9610246366004612288565b610b7a565b34801561025757600080fd5b506101e9610266366004612336565b610daa565b34801561027757600080fd5b506101b1610286366004612288565b610dc5565b34801561029757600080fd5b506102ab6102a6366004612372565b610e25565b604051908152602001610166565b3480156102c557600080fd5b506101e9610eab565b3480156102da57600080fd5b506000546001600160a01b03166101b1565b3480156102f857600080fd5b50610184610ebf565b34801561030d57600080fd5b506101e961031c36600461239b565b610ece565b34801561032d57600080fd5b506101e961033c3660046123e8565b610edd565b34801561034d57600080fd5b506101e961035c36600461250d565b610f15565b34801561036d57600080fd5b5061018461037c366004612288565b6112ba565b6101e96113cb565b34801561039557600080fd5b5061015a6103a43660046125b1565b6001600160a01b03918216600090815260066020908152604080832093909416825291909152205460ff1690565b3480156103de57600080fd5b506101e96103ed366004612372565b61147c565b3480156103fe57600080fd5b506101e961040d366004612372565b6114f5565b34801561041e57600080fd5b506101e961042d366004612288565b61151f565b60006001600160e01b031982166380ac58cd60e01b148061046357506001600160e01b03198216635b5e139f60e01b145b8061047e57506301ffc9a760e01b6001600160e01b03198316145b92915050565b606060018054610493906125e4565b80601f01602080910402602001604051908101604052809291908181526020018280546104bf906125e4565b801561050c5780601f106104e15761010080835404028352916020019161050c565b820191906000526020600020905b8154815290600101906020018083116104ef57829003601f168201915b5050505050905090565b600061052182611699565b506000908152600560205260409020546001600160a01b031690565b600061054882610dc5565b9050806001600160a01b0316836001600160a01b031614156105bb5760405162461bcd60e51b815260206004820152602160248201527f4552433732313a20617070726f76616c20746f2063757272656e74206f776e656044820152603960f91b60648201526084015b60405180910390fd5b336001600160a01b03821614806105d757506105d781336103a4565b6106495760405162461bcd60e51b815260206004820152603d60248201527f4552433732313a20617070726f76652063616c6c6572206973206e6f7420746f60448201527f6b656e206f776e6572206f7220617070726f76656420666f7220616c6c00000060648201526084016105b2565b61065383836116f8565b505050565b6000858152600b602052604090206008015460ff16156106b25760405162461bcd60e51b815260206004820152601560248201527413d999995c881a5cc8185b1c9958591e481cdbdb19605a1b60448201526064016105b2565b6000858152600b6020526040902060080154610100900460ff16156107195760405162461bcd60e51b815260206004820152601a60248201527f4f6666657220697320616c72656164792063616e63656c6c656400000000000060448201526064016105b2565b6000858152600b60205260409020546001600160a01b031633141561078b5760405162461bcd60e51b815260206004820152602260248201527f53656c6c6572732063616e6e6f7420627579207468656972206f776e206f666660448201526132b960f11b60648201526084016105b2565b6009546040516370a0823160e01b81523360048201526001600160a01b03909116906370a082319060240160206040518083038186803b1580156107ce57600080fd5b505afa1580156107e2573d6000803e3d6000fd5b505050506040513d601f19601f82011682018060405250810190610806919061261f565b6000868152600b6020526040902060040154111561085b5760405162461bcd60e51b81526020600482015260126024820152714e6f7420656e6f7567682062616c616e636560701b60448201526064016105b2565b6009546000868152600b602052604090819020600490810154915163d505accf60e01b8152339181019190915230602482015260448101919091526064810186905260ff8516608482015260a4810184905260c481018390526001600160a01b039091169063d505accf9060e401600060405180830381600087803b1580156108e357600080fd5b505af11580156108f7573d6000803e3d6000fd5b5050506000868152600b6020526040908190206004908101546009549251636eb1769f60e11b8152339281019290925230602483015292506001600160a01b039091169063dd62ed3e9060440160206040518083038186803b15801561095c57600080fd5b505afa158015610970573d6000803e3d6000fd5b505050506040513d601f19601f82011682018060405250810190610994919061261f565b10156109d95760405162461bcd60e51b81526020600482015260146024820152734e6f7420656e6f75676820616c6c6f77616e636560601b60448201526064016105b2565b6009546000868152600b6020526040808220805460049182015492516323b872dd60e01b815233928101929092526001600160a01b0390811660248301526044820192909252919216906323b872dd90606401602060405180830381600087803b158015610a4657600080fd5b505af1158015610a5a573d6000803e3d6000fd5b505050506040513d601f19601f82011682018060405250810190610a7e9190612638565b905080610ac35760405162461bcd60e51b81526020600482015260136024820152721d1c985b9cd9995c919c9bdb4819985a5b1959606a1b60448201526064016105b2565b6000868152600b6020526040902060088101805460ff19166001908117909155810180546001600160a01b031916339081179091558154600390920154610b14926001600160a01b03169190611766565b604051339087907f040a2372445de7fb4e9211f1628dc9fe3d6fa936417ca189cfa6fe2d6dcde93a90600090a3505050505050565b610b5333826118ca565b610b6f5760405162461bcd60e51b81526004016105b290612655565b610653838383611766565b6009546040516370a0823160e01b81523360048201526000916001600160a01b0316906370a082319060240160206040518083038186803b158015610bbe57600080fd5b505afa158015610bd2573d6000803e3d6000fd5b505050506040513d601f19601f82011682018060405250810190610bf6919061261f565b905080821115610c485760405162461bcd60e51b815260206004820152601a60248201527f4e6f7420656e6f75676820746f2062652077697468647261776e00000000000060448201526064016105b2565b600a54821115610c9a5760405162461bcd60e51b815260206004820152601e60248201527f57697468647261772069732063757272656e746c792064697361626c6564000060448201526064016105b2565b604051600090339084156108fc0290859084818181858888f19350505050905080610cf55760405162461bcd60e51b815260206004820152600b60248201526a1cd95b990819985a5b195960aa1b60448201526064016105b2565b600954604051632770a7eb60e21b8152336004820152602481018590526001600160a01b0390911690639dc29fac90604401600060405180830381600087803b158015610d4157600080fd5b505af1158015610d55573d6000803e3d6000fd5b50506040518581523392507f884edad9ce6fa2440d8a54cc123490eb96d2768479d49ff9c7366125a9424364915060200160405180910390a282600a6000828254610da091906126b8565b9091555050505050565b61065383838360405180602001604052806000815250610edd565b6000818152600360205260408120546001600160a01b03168061047e5760405162461bcd60e51b8152602060048201526018602482015277115490cdcc8c4e881a5b9d985b1a59081d1bdad95b88125160421b60448201526064016105b2565b60006001600160a01b038216610e8f5760405162461bcd60e51b815260206004820152602960248201527f4552433732313a2061646472657373207a65726f206973206e6f7420612076616044820152683634b21037bbb732b960b91b60648201526084016105b2565b506001600160a01b031660009081526004602052604090205490565b610eb3611948565b610ebd60006119a2565b565b606060028054610493906125e4565b610ed93383836119f2565b5050565b610ee733836118ca565b610f035760405162461bcd60e51b81526004016105b290612655565b610f0f84848484611ac1565b50505050565b60008711610f655760405162461bcd60e51b815260206004820152601c60248201527f5072696365206d7573742062652067726561746572207468616e20300000000060448201526064016105b2565b84610fb25760405162461bcd60e51b815260206004820152601b60248201527f4974656d206e616d65206d757374206e6f7420626520656d707479000000000060448201526064016105b2565b80610fff5760405162461bcd60e51b815260206004820152601b60248201527f546f6b656e20555249206d757374206e6f7420626520656d707479000000000060448201526064016105b2565b60006110413384848080601f016020809104026020016040519081016040528093929190818152602001838380828437600092019190915250611af492505050565b6040516bffffffffffffffffffffffff193360601b1660208201526034810182905290915060009060540160408051601f19818403018152828252805160209182012061014084018352338452600084830152308484015260608401869052608084018d90528251601f8c018390048302810183019093528a8352935060a0830191908b908b9081908401838280828437600092019190915250505090825250604080516020601f8a0181900481028201810190925288815291810191908990899081908401838280828437600092019190915250505090825250604080516020601f880181900481028201810190925286815291810191908790879081908401838280828437600092018290525093855250505060208083018290526040928301829052848252600b815290829020835181546001600160a01b03199081166001600160a01b0392831617835585840151600184018054831691841691909117905593850151600283018054909516911617909255606083015160038301556080830151600483015560a083015180516111e2926005850192019061211b565b5060c082015180516111fe91600684019160209091019061211b565b5060e0820151805161121a91600784019160209091019061211b565b506101008201518160080160006101000a81548160ff0219169083151502179055506101208201518160080160016101000a81548160ff02191690831515021790555090505081336001600160a01b0316827f44c6753a1a789ef93169cbfc6456408d5438d5406af5db10e342d351ce77f9b687878e8e8e8e8e6040516112a797969594939291906126f8565b60405180910390a4505050505050505050565b60606112c582611699565b600082815260076020526040812080546112de906125e4565b80601f016020809104026020016040519081016040528092919081815260200182805461130a906125e4565b80156113575780601f1061132c57610100808354040283529160200191611357565b820191906000526020600020905b81548152906001019060200180831161133a57829003601f168201915b50505050509050600061137560408051602081019091526000815290565b9050805160001415611388575092915050565b8151156113ba5780826040516020016113a2929190612748565b60405160208183030381529060405292505050919050565b6113c384611b2c565b949350505050565b6009546040516340c10f1960e01b81523360048201523460248201526001600160a01b03909116906340c10f1990604401600060405180830381600087803b15801561141657600080fd5b505af115801561142a573d6000803e3d6000fd5b5050505034600a60008282546114409190612777565b909155505060405134815233907fe1fffcc4923d04b559f4d29a8bfc6cda04eb5b0d3c460751c2402c5c5cc9109c9060200160405180910390a2565b611484611948565b6001600160a01b0381166114e95760405162461bcd60e51b815260206004820152602660248201527f4f776e61626c653a206e6577206f776e657220697320746865207a65726f206160448201526564647265737360d01b60648201526084016105b2565b6114f2816119a2565b50565b6114fd611948565b600980546001600160a01b0319166001600160a01b0392909216919091179055565b6000818152600b60205260409020546001600160a01b0316331461157e5760405162461bcd60e51b815260206004820152601660248201527513db9b1e481cd95b1b195c8818d85b8818d85b98d95b60521b60448201526064016105b2565b6000818152600b602052604090206008015460ff16156115d85760405162461bcd60e51b815260206004820152601560248201527413d999995c881a5cc8185b1c9958591e481cdbdb19605a1b60448201526064016105b2565b6000818152600b6020526040902060080154610100900460ff161561163f5760405162461bcd60e51b815260206004820152601a60248201527f4f6666657220697320616c72656164792063616e63656c6c656400000000000060448201526064016105b2565b6000818152600b6020526040902060088101805461ff0019166101001790556003015461166b90611b9f565b60405181907f6917c54e363c87122ded2db643033caa7634085108272a134387eb8e5ddee76290600090a250565b6000818152600360205260409020546001600160a01b03166114f25760405162461bcd60e51b8152602060048201526018602482015277115490cdcc8c4e881a5b9d985b1a59081d1bdad95b88125160421b60448201526064016105b2565b600081815260056020526040902080546001600160a01b0319166001600160a01b038416908117909155819061172d82610dc5565b6001600160a01b03167f8c5be1e5ebec7d5bd14f71427d1e84f3dd0314c0f7b2291e5b200ac8c7c3b92560405160405180910390a45050565b826001600160a01b031661177982610dc5565b6001600160a01b03161461179f5760405162461bcd60e51b81526004016105b29061278f565b6001600160a01b0382166118015760405162461bcd60e51b8152602060048201526024808201527f4552433732313a207472616e7366657220746f20746865207a65726f206164646044820152637265737360e01b60648201526084016105b2565b826001600160a01b031661181482610dc5565b6001600160a01b03161461183a5760405162461bcd60e51b81526004016105b29061278f565b600081815260056020908152604080832080546001600160a01b03199081169091556001600160a01b0387811680865260048552838620805460001901905590871680865283862080546001019055868652600390945282852080549092168417909155905184937fddf252ad1be2c89b69c2b068fc378daa952ba7f163c4a11628f55a4df523b3ef91a4505050565b6000806118d683610dc5565b9050806001600160a01b0316846001600160a01b0316148061191d57506001600160a01b0380821660009081526006602090815260408083209388168352929052205460ff165b806113c35750836001600160a01b031661193684610516565b6001600160a01b031614949350505050565b6000546001600160a01b03163314610ebd5760405162461bcd60e51b815260206004820181905260248201527f4f776e61626c653a2063616c6c6572206973206e6f7420746865206f776e657260448201526064016105b2565b600080546001600160a01b038381166001600160a01b0319831681178455604051919092169283917f8be0079c531659141344cd1fd0a4f28419497f9722a3daafe3b4186f6b6457e09190a35050565b816001600160a01b0316836001600160a01b03161415611a545760405162461bcd60e51b815260206004820152601960248201527f4552433732313a20617070726f766520746f2063616c6c65720000000000000060448201526064016105b2565b6001600160a01b03838116600081815260066020908152604080832094871680845294825291829020805460ff191686151590811790915591519182527f17307eab39ab6107e8899845ad3d59bd9653f200f220920489ca2b5937696c31910160405180910390a3505050565b611acc848484611766565b611ad884848484611bdf565b610f0f5760405162461bcd60e51b81526004016105b2906127d4565b6000611b04600880546001019055565b6000611b0f60085490565b9050611b1b8482611cec565b611b258184611e77565b9392505050565b6060611b3782611699565b6000611b4e60408051602081019091526000815290565b90506000815111611b6e5760405180602001604052806000815250611b25565b80611b7884611f11565b604051602001611b89929190612748565b6040516020818303038152906040529392505050565b611ba881611fae565b60008181526007602052604090208054611bc1906125e4565b1590506114f25760008181526007602052604081206114f29161219f565b60006001600160a01b0384163b15611ce157604051630a85bd0160e11b81526001600160a01b0385169063150b7a0290611c23903390899088908890600401612826565b602060405180830381600087803b158015611c3d57600080fd5b505af1925050508015611c6d575060408051601f3d908101601f19168201909252611c6a91810190612863565b60015b611cc7573d808015611c9b576040519150601f19603f3d011682016040523d82523d6000602084013e611ca0565b606091505b508051611cbf5760405162461bcd60e51b81526004016105b2906127d4565b805181602001fd5b6001600160e01b031916630a85bd0160e11b1490506113c3565b506001949350505050565b6001600160a01b038216611d425760405162461bcd60e51b815260206004820181905260248201527f4552433732313a206d696e7420746f20746865207a65726f206164647265737360448201526064016105b2565b6000818152600360205260409020546001600160a01b031615611da75760405162461bcd60e51b815260206004820152601c60248201527f4552433732313a20746f6b656e20616c7265616479206d696e7465640000000060448201526064016105b2565b6000818152600360205260409020546001600160a01b031615611e0c5760405162461bcd60e51b815260206004820152601c60248201527f4552433732313a20746f6b656e20616c7265616479206d696e7465640000000060448201526064016105b2565b6001600160a01b038216600081815260046020908152604080832080546001019055848352600390915280822080546001600160a01b0319168417905551839291907fddf252ad1be2c89b69c2b068fc378daa952ba7f163c4a11628f55a4df523b3ef908290a45050565b6000828152600360205260409020546001600160a01b0316611ef25760405162461bcd60e51b815260206004820152602e60248201527f45524337323155524953746f726167653a2055524920736574206f66206e6f6e60448201526d32bc34b9ba32b73a103a37b5b2b760911b60648201526084016105b2565b600082815260076020908152604090912082516106539284019061211b565b60606000611f1e83612043565b600101905060008167ffffffffffffffff811115611f3e57611f3e6123d2565b6040519080825280601f01601f191660200182016040528015611f68576020820181803683370190505b5090508181016020015b600019016f181899199a1a9b1b9c1cb0b131b232b360811b600a86061a8153600a8504945084611fa157611fa6565b611f72565b509392505050565b6000611fb982610dc5565b9050611fc482610dc5565b600083815260056020908152604080832080546001600160a01b03199081169091556001600160a01b0385168085526004845282852080546000190190558785526003909352818420805490911690555192935084927fddf252ad1be2c89b69c2b068fc378daa952ba7f163c4a11628f55a4df523b3ef908390a45050565b60008072184f03e93ff9f4daa797ed6e38ed64bf6a1f0160401b83106120825772184f03e93ff9f4daa797ed6e38ed64bf6a1f0160401b830492506040015b6d04ee2d6d415b85acef810000000083106120ae576d04ee2d6d415b85acef8100000000830492506020015b662386f26fc1000083106120cc57662386f26fc10000830492506010015b6305f5e10083106120e4576305f5e100830492506008015b61271083106120f857612710830492506004015b6064831061210a576064830492506002015b600a831061047e5760010192915050565b828054612127906125e4565b90600052602060002090601f016020900481019282612149576000855561218f565b82601f1061216257805160ff191683800117855561218f565b8280016001018555821561218f579182015b8281111561218f578251825591602001919060010190612174565b5061219b9291506121d5565b5090565b5080546121ab906125e4565b6000825580601f106121bb575050565b601f0160209004906000526020600020908101906114f291905b5b8082111561219b57600081556001016121d6565b6001600160e01b0319811681146114f257600080fd5b60006020828403121561221257600080fd5b8135611b25816121ea565b60005b83811015612238578181015183820152602001612220565b83811115610f0f5750506000910152565b6000815180845261226181602086016020860161221d565b601f01601f19169290920160200192915050565b602081526000611b256020830184612249565b60006020828403121561229a57600080fd5b5035919050565b80356001600160a01b03811681146122b857600080fd5b919050565b600080604083850312156122d057600080fd5b6122d9836122a1565b946020939093013593505050565b600080600080600060a086880312156122ff57600080fd5b8535945060208601359350604086013560ff8116811461231e57600080fd5b94979396509394606081013594506080013592915050565b60008060006060848603121561234b57600080fd5b612354846122a1565b9250612362602085016122a1565b9150604084013590509250925092565b60006020828403121561238457600080fd5b611b25826122a1565b80151581146114f257600080fd5b600080604083850312156123ae57600080fd5b6123b7836122a1565b915060208301356123c78161238d565b809150509250929050565b634e487b7160e01b600052604160045260246000fd5b600080600080608085870312156123fe57600080fd5b612407856122a1565b9350612415602086016122a1565b925060408501359150606085013567ffffffffffffffff8082111561243957600080fd5b818701915087601f83011261244d57600080fd5b81358181111561245f5761245f6123d2565b604051601f8201601f19908116603f01168101908382118183101715612487576124876123d2565b816040528281528a60208487010111156124a057600080fd5b82602086016020830137600060208483010152809550505050505092959194509250565b60008083601f8401126124d657600080fd5b50813567ffffffffffffffff8111156124ee57600080fd5b60208301915083602082850101111561250657600080fd5b9250929050565b60008060008060008060006080888a03121561252857600080fd5b87359650602088013567ffffffffffffffff8082111561254757600080fd5b6125538b838c016124c4565b909850965060408a013591508082111561256c57600080fd5b6125788b838c016124c4565b909650945060608a013591508082111561259157600080fd5b5061259e8a828b016124c4565b989b979a50959850939692959293505050565b600080604083850312156125c457600080fd5b6125cd836122a1565b91506125db602084016122a1565b90509250929050565b600181811c908216806125f857607f821691505b6020821081141561261957634e487b7160e01b600052602260045260246000fd5b50919050565b60006020828403121561263157600080fd5b5051919050565b60006020828403121561264a57600080fd5b8151611b258161238d565b6020808252602d908201527f4552433732313a2063616c6c6572206973206e6f7420746f6b656e206f776e6560408201526c1c881bdc88185c1c1c9bdd9959609a1b606082015260800190565b634e487b7160e01b600052601160045260246000fd5b6000828210156126ca576126ca6126a2565b500390565b81835281816020850137506000828201602090810191909152601f909101601f19169091010190565b60808152600061270c60808301898b6126cf565b87602084015282810360408401526127258187896126cf565b9050828103606084015261273a8185876126cf565b9a9950505050505050505050565b6000835161275a81846020880161221d565b83519083019061276e81836020880161221d565b01949350505050565b6000821982111561278a5761278a6126a2565b500190565b60208082526025908201527f4552433732313a207472616e736665722066726f6d20696e636f72726563742060408201526437bbb732b960d91b606082015260800190565b60208082526032908201527f4552433732313a207472616e7366657220746f206e6f6e20455243373231526560408201527131b2b4bb32b91034b6b83632b6b2b73a32b960711b606082015260800190565b6001600160a01b038581168252841660208201526040810183905260806060820181905260009061285990830184612249565b9695505050505050565b60006020828403121561287557600080fd5b8151611b25816121ea56fea26469706673582212208d12dafdc3b2b25390829676bf779100b8ffc5d00171c365f2177f25e7ec520564736f6c63430008090033",
    "linkReferences": {},
    "deployedLinkReferences": {}
}