{
  "_format": "hh-sol-artifact-1",
  "contractName": "Marketplace",
  "sourceName": "contracts/Marketplace.sol",
  "abi": [
    {
      "inputs": [
        {
          "internalType": "address",
          "name": "_tokenAddress",
          "type": "address"
        },
        {
          "internalType": "address",
          "name": "_trustedForwarder",
          "type": "address"
        }
      ],
      "stateMutability": "nonpayable",
      "type": "constructor"
    },
    {
      "anonymous": false,
      "inputs": [
        {
          "indexed": true,
          "internalType": "address",
          "name": "owner",
          "type": "address"
        },
        {
          "indexed": true,
          "internalType": "address",
          "name": "approved",
          "type": "address"
        },
        {
          "indexed": true,
          "internalType": "uint256",
          "name": "tokenId",
          "type": "uint256"
        }
      ],
      "name": "Approval",
      "type": "event"
    },
    {
      "anonymous": false,
      "inputs": [
        {
          "indexed": true,
          "internalType": "address",
          "name": "owner",
          "type": "address"
        },
        {
          "indexed": true,
          "internalType": "address",
          "name": "operator",
          "type": "address"
        },
        {
          "indexed": false,
          "internalType": "bool",
          "name": "approved",
          "type": "bool"
        }
      ],
      "name": "ApprovalForAll",
      "type": "event"
    },
    {
      "anonymous": false,
      "inputs": [
        {
          "indexed": true,
          "internalType": "bytes32",
          "name": "offerId",
          "type": "bytes32"
        },
        {
          "indexed": true,
          "internalType": "address",
          "name": "buyer",
          "type": "address"
        }
      ],
      "name": "BuyOffer",
      "type": "event"
    },
    {
      "anonymous": false,
      "inputs": [
        {
          "indexed": true,
          "internalType": "bytes32",
          "name": "offerId",
          "type": "bytes32"
        }
      ],
      "name": "CancelOffer",
      "type": "event"
    },
    {
      "anonymous": false,
      "inputs": [
        {
          "indexed": true,
          "internalType": "bytes32",
          "name": "offerId",
          "type": "bytes32"
        }
      ],
      "name": "CompleteFailedOffer",
      "type": "event"
    },
    {
      "anonymous": false,
      "inputs": [
        {
          "indexed": true,
          "internalType": "bytes32",
          "name": "offerId",
          "type": "bytes32"
        }
      ],
      "name": "CompleteSuccessfullOffer",
      "type": "event"
    },
    {
      "anonymous": false,
      "inputs": [
        {
          "indexed": true,
          "internalType": "bytes32",
          "name": "offerId",
          "type": "bytes32"
        },
        {
          "indexed": true,
          "internalType": "address",
          "name": "seller",
          "type": "address"
        },
        {
          "indexed": true,
          "internalType": "uint256",
          "name": "tokenId",
          "type": "uint256"
        },
        {
          "indexed": false,
          "internalType": "string",
          "name": "tokenURI",
          "type": "string"
        },
        {
          "indexed": false,
          "internalType": "uint256",
          "name": "price",
          "type": "uint256"
        },
        {
          "indexed": false,
          "internalType": "string",
          "name": "itemName",
          "type": "string"
        },
        {
          "indexed": false,
          "internalType": "string",
          "name": "itemImage",
          "type": "string"
        }
      ],
      "name": "CreateOffer",
      "type": "event"
    },
    {
      "anonymous": false,
      "inputs": [
        {
          "indexed": true,
          "internalType": "address",
          "name": "sender",
          "type": "address"
        },
        {
          "indexed": false,
          "internalType": "uint256",
          "name": "amount",
          "type": "uint256"
        }
      ],
      "name": "Deposit",
      "type": "event"
    },
    {
      "anonymous": false,
      "inputs": [
        {
          "indexed": true,
          "internalType": "address",
          "name": "previousOwner",
          "type": "address"
        },
        {
          "indexed": true,
          "internalType": "address",
          "name": "newOwner",
          "type": "address"
        }
      ],
      "name": "OwnershipTransferred",
      "type": "event"
    },
    {
      "anonymous": false,
      "inputs": [
        {
          "indexed": true,
          "internalType": "address",
          "name": "from",
          "type": "address"
        },
        {
          "indexed": true,
          "internalType": "address",
          "name": "to",
          "type": "address"
        },
        {
          "indexed": true,
          "internalType": "uint256",
          "name": "tokenId",
          "type": "uint256"
        }
      ],
      "name": "Transfer",
      "type": "event"
    },
    {
      "anonymous": false,
      "inputs": [
        {
          "indexed": true,
          "internalType": "address",
          "name": "sender",
          "type": "address"
        },
        {
          "indexed": false,
          "internalType": "uint256",
          "name": "amount",
          "type": "uint256"
        }
      ],
      "name": "Withdraw",
      "type": "event"
    },
    {
      "inputs": [
        {
          "internalType": "address",
          "name": "to",
          "type": "address"
        },
        {
          "internalType": "uint256",
          "name": "tokenId",
          "type": "uint256"
        }
      ],
      "name": "approve",
      "outputs": [],
      "stateMutability": "nonpayable",
      "type": "function"
    },
    {
      "inputs": [
        {
          "internalType": "address",
          "name": "owner",
          "type": "address"
        }
      ],
      "name": "balanceOf",
      "outputs": [
        {
          "internalType": "uint256",
          "name": "",
          "type": "uint256"
        }
      ],
      "stateMutability": "view",
      "type": "function"
    },
    {
      "inputs": [
        {
          "internalType": "bytes32",
          "name": "offerId",
          "type": "bytes32"
        },
        {
          "internalType": "uint256",
          "name": "deadline",
          "type": "uint256"
        },
        {
          "internalType": "uint8",
          "name": "v",
          "type": "uint8"
        },
        {
          "internalType": "bytes32",
          "name": "r",
          "type": "bytes32"
        },
        {
          "internalType": "bytes32",
          "name": "s",
          "type": "bytes32"
        }
      ],
      "name": "buyOffer",
      "outputs": [],
      "stateMutability": "nonpayable",
      "type": "function"
    },
    {
      "inputs": [
        {
          "internalType": "bytes32",
          "name": "offerId",
          "type": "bytes32"
        }
      ],
      "name": "cancelOffer",
      "outputs": [],
      "stateMutability": "nonpayable",
      "type": "function"
    },
    {
      "inputs": [
        {
          "internalType": "bytes32",
          "name": "offerId",
          "type": "bytes32"
        }
      ],
      "name": "completeFailedOffer",
      "outputs": [],
      "stateMutability": "nonpayable",
      "type": "function"
    },
    {
      "inputs": [
        {
          "internalType": "bytes32",
          "name": "offerId",
          "type": "bytes32"
        }
      ],
      "name": "completeSuccessfullOffer",
      "outputs": [],
      "stateMutability": "nonpayable",
      "type": "function"
    },
    {
      "inputs": [
        {
          "internalType": "uint256",
          "name": "price",
          "type": "uint256"
        },
        {
          "internalType": "string",
          "name": "itemName",
          "type": "string"
        },
        {
          "internalType": "string",
          "name": "itemImage",
          "type": "string"
        },
        {
          "internalType": "string",
          "name": "tokenURI",
          "type": "string"
        }
      ],
      "name": "createOffer",
      "outputs": [],
      "stateMutability": "nonpayable",
      "type": "function"
    },
    {
      "inputs": [],
      "name": "deposit",
      "outputs": [],
      "stateMutability": "payable",
      "type": "function"
    },
    {
      "inputs": [
        {
          "internalType": "uint256",
          "name": "tokenId",
          "type": "uint256"
        }
      ],
      "name": "getApproved",
      "outputs": [
        {
          "internalType": "address",
          "name": "",
          "type": "address"
        }
      ],
      "stateMutability": "view",
      "type": "function"
    },
    {
      "inputs": [],
      "name": "getTrustedForwarder",
      "outputs": [
        {
          "internalType": "address",
          "name": "forwarder",
          "type": "address"
        }
      ],
      "stateMutability": "view",
      "type": "function"
    },
    {
      "inputs": [
        {
          "internalType": "address",
          "name": "owner",
          "type": "address"
        },
        {
          "internalType": "address",
          "name": "operator",
          "type": "address"
        }
      ],
      "name": "isApprovedForAll",
      "outputs": [
        {
          "internalType": "bool",
          "name": "",
          "type": "bool"
        }
      ],
      "stateMutability": "view",
      "type": "function"
    },
    {
      "inputs": [
        {
          "internalType": "address",
          "name": "forwarder",
          "type": "address"
        }
      ],
      "name": "isTrustedForwarder",
      "outputs": [
        {
          "internalType": "bool",
          "name": "",
          "type": "bool"
        }
      ],
      "stateMutability": "view",
      "type": "function"
    },
    {
      "inputs": [],
      "name": "name",
      "outputs": [
        {
          "internalType": "string",
          "name": "",
          "type": "string"
        }
      ],
      "stateMutability": "view",
      "type": "function"
    },
    {
      "inputs": [],
      "name": "owner",
      "outputs": [
        {
          "internalType": "address",
          "name": "",
          "type": "address"
        }
      ],
      "stateMutability": "view",
      "type": "function"
    },
    {
      "inputs": [
        {
          "internalType": "uint256",
          "name": "tokenId",
          "type": "uint256"
        }
      ],
      "name": "ownerOf",
      "outputs": [
        {
          "internalType": "address",
          "name": "",
          "type": "address"
        }
      ],
      "stateMutability": "view",
      "type": "function"
    },
    {
      "inputs": [],
      "name": "renounceOwnership",
      "outputs": [],
      "stateMutability": "nonpayable",
      "type": "function"
    },
    {
      "inputs": [
        {
          "internalType": "address",
          "name": "from",
          "type": "address"
        },
        {
          "internalType": "address",
          "name": "to",
          "type": "address"
        },
        {
          "internalType": "uint256",
          "name": "tokenId",
          "type": "uint256"
        }
      ],
      "name": "safeTransferFrom",
      "outputs": [],
      "stateMutability": "nonpayable",
      "type": "function"
    },
    {
      "inputs": [
        {
          "internalType": "address",
          "name": "from",
          "type": "address"
        },
        {
          "internalType": "address",
          "name": "to",
          "type": "address"
        },
        {
          "internalType": "uint256",
          "name": "tokenId",
          "type": "uint256"
        },
        {
          "internalType": "bytes",
          "name": "data",
          "type": "bytes"
        }
      ],
      "name": "safeTransferFrom",
      "outputs": [],
      "stateMutability": "nonpayable",
      "type": "function"
    },
    {
      "inputs": [
        {
          "internalType": "address",
          "name": "operator",
          "type": "address"
        },
        {
          "internalType": "bool",
          "name": "approved",
          "type": "bool"
        }
      ],
      "name": "setApprovalForAll",
      "outputs": [],
      "stateMutability": "nonpayable",
      "type": "function"
    },
    {
      "inputs": [
        {
          "internalType": "address",
          "name": "_tokenAddress",
          "type": "address"
        }
      ],
      "name": "setS2LContract",
      "outputs": [],
      "stateMutability": "nonpayable",
      "type": "function"
    },
    {
      "inputs": [
        {
          "internalType": "address",
          "name": "_trustedForwarder",
          "type": "address"
        }
      ],
      "name": "setTrustedForwarder",
      "outputs": [],
      "stateMutability": "nonpayable",
      "type": "function"
    },
    {
      "inputs": [
        {
          "internalType": "bytes4",
          "name": "interfaceId",
          "type": "bytes4"
        }
      ],
      "name": "supportsInterface",
      "outputs": [
        {
          "internalType": "bool",
          "name": "",
          "type": "bool"
        }
      ],
      "stateMutability": "view",
      "type": "function"
    },
    {
      "inputs": [],
      "name": "symbol",
      "outputs": [
        {
          "internalType": "string",
          "name": "",
          "type": "string"
        }
      ],
      "stateMutability": "view",
      "type": "function"
    },
    {
      "inputs": [
        {
          "internalType": "uint256",
          "name": "tokenId",
          "type": "uint256"
        }
      ],
      "name": "tokenURI",
      "outputs": [
        {
          "internalType": "string",
          "name": "",
          "type": "string"
        }
      ],
      "stateMutability": "view",
      "type": "function"
    },
    {
      "inputs": [
        {
          "internalType": "address",
          "name": "from",
          "type": "address"
        },
        {
          "internalType": "address",
          "name": "to",
          "type": "address"
        },
        {
          "internalType": "uint256",
          "name": "tokenId",
          "type": "uint256"
        }
      ],
      "name": "transferFrom",
      "outputs": [],
      "stateMutability": "nonpayable",
      "type": "function"
    },
    {
      "inputs": [
        {
          "internalType": "address",
          "name": "newOwner",
          "type": "address"
        }
      ],
      "name": "transferOwnership",
      "outputs": [],
      "stateMutability": "nonpayable",
      "type": "function"
    },
    {
      "inputs": [],
      "name": "versionRecipient",
      "outputs": [
        {
          "internalType": "string",
          "name": "",
          "type": "string"
        }
      ],
      "stateMutability": "pure",
      "type": "function"
    },
    {
      "inputs": [
        {
          "internalType": "uint256",
          "name": "amount",
          "type": "uint256"
        }
      ],
      "name": "withdraw",
      "outputs": [],
      "stateMutability": "nonpayable",
      "type": "function"
    }
  ],
  "bytecode": "0x60806040526000600b553480156200001657600080fd5b506040516200337438038062003374833981016040819052620000399162000252565b6040518060400160405280600981526020016813d999995c8813919560ba1b8152506040518060400160405280600381526020016213919560ea1b815250620000916200008b6200010960201b60201c565b6200013f565b8151620000a69060019060208501906200018f565b508051620000bc9060029060208401906200018f565b5050600a80546001600160a01b0319166001600160a01b038516179055506200010181600880546001600160a01b0319166001600160a01b0392909216919091179055565b5050620002c7565b6000601436108015906200012757506008546001600160a01b031633145b156200013a575060131936013560601c90565b503390565b600080546001600160a01b038381166001600160a01b0319831681178455604051919092169283917f8be0079c531659141344cd1fd0a4f28419497f9722a3daafe3b4186f6b6457e09190a35050565b8280546200019d906200028a565b90600052602060002090601f016020900481019282620001c157600085556200020c565b82601f10620001dc57805160ff19168380011785556200020c565b828001600101855582156200020c579182015b828111156200020c578251825591602001919060010190620001ef565b506200021a9291506200021e565b5090565b5b808211156200021a57600081556001016200021f565b80516001600160a01b03811681146200024d57600080fd5b919050565b600080604083850312156200026657600080fd5b620002718362000235565b9150620002816020840162000235565b90509250929050565b600181811c908216806200029f57607f821691505b60208210811415620002c157634e487b7160e01b600052602260045260246000fd5b50919050565b61309d80620002d76000396000f3fe6080604052600436106101b75760003560e01c80638da5cb5b116100ec578063ce1b815f1161008a578063e985e9c511610064578063e985e9c5146104e2578063f2fde38b1461052b578063f58614c81461054b578063f952279e1461056b57600080fd5b8063ce1b815f1461049c578063d0e30db0146104ba578063da742228146104c257600080fd5b8063a22cb465116100c6578063a22cb4651461041c578063b88d4fde1461043c578063c74d94981461045c578063c87b56dd1461047c57600080fd5b80638da5cb5b146103c957806395d89b41146103e757806399596095146103fc57600080fd5b806342842e0e116101595780636352211e116101335780636352211e1461034657806365d944cf1461036657806370a0823114610386578063715018a6146103b457600080fd5b806342842e0e146102cd578063486ff0cd146102ed578063572b6c051461031757600080fd5b8063095ea7b311610195578063095ea7b31461024b57806311f94e391461026d57806323b872dd1461028d5780632e1a7d4d146102ad57600080fd5b806301ffc9a7146101bc57806306fdde03146101f1578063081812fc14610213575b600080fd5b3480156101c857600080fd5b506101dc6101d73660046129b9565b61058b565b60405190151581526020015b60405180910390f35b3480156101fd57600080fd5b506102066105dd565b6040516101e89190612a2e565b34801561021f57600080fd5b5061023361022e366004612a41565b61066f565b6040516001600160a01b0390911681526020016101e8565b34801561025757600080fd5b5061026b610266366004612a76565b610696565b005b34801561027957600080fd5b5061026b610288366004612aa0565b6107c3565b34801561029957600080fd5b5061026b6102a8366004612aef565b610d5a565b3480156102b957600080fd5b5061026b6102c8366004612a41565b610d92565b3480156102d957600080fd5b5061026b6102e8366004612aef565b611016565b3480156102f957600080fd5b506040805180820190915260018152603160f81b6020820152610206565b34801561032357600080fd5b506101dc610332366004612b2b565b6008546001600160a01b0391821691161490565b34801561035257600080fd5b50610233610361366004612a41565b611031565b34801561037257600080fd5b5061026b610381366004612a41565b611091565b34801561039257600080fd5b506103a66103a1366004612b2b565b6112a3565b6040519081526020016101e8565b3480156103c057600080fd5b5061026b611329565b3480156103d557600080fd5b506000546001600160a01b0316610233565b3480156103f357600080fd5b5061020661133d565b34801561040857600080fd5b5061026b610417366004612a41565b61134c565b34801561042857600080fd5b5061026b610437366004612b54565b611553565b34801561044857600080fd5b5061026b610457366004612ba1565b611569565b34801561046857600080fd5b5061026b610477366004612cc6565b6115a8565b34801561048857600080fd5b50610206610497366004612a41565b6119ba565b3480156104a857600080fd5b506008546001600160a01b0316610233565b61026b611acb565b3480156104ce57600080fd5b5061026b6104dd366004612b2b565b611b7c565b3480156104ee57600080fd5b506101dc6104fd366004612d6a565b6001600160a01b03918216600090815260066020908152604080832093909416825291909152205460ff1690565b34801561053757600080fd5b5061026b610546366004612b2b565b611ba5565b34801561055757600080fd5b5061026b610566366004612b2b565b611c1b565b34801561057757600080fd5b5061026b610586366004612a41565b611c45565b60006001600160e01b031982166380ac58cd60e01b14806105bc57506001600160e01b03198216635b5e139f60e01b145b806105d757506301ffc9a760e01b6001600160e01b03198316145b92915050565b6060600180546105ec90612d9d565b80601f016020809104026020016040519081016040528092919081815260200182805461061890612d9d565b80156106655780601f1061063a57610100808354040283529160200191610665565b820191906000526020600020905b81548152906001019060200180831161064857829003601f168201915b5050505050905090565b600061067a82611df8565b506000908152600560205260409020546001600160a01b031690565b60006106a182611031565b9050806001600160a01b0316836001600160a01b031614156107145760405162461bcd60e51b815260206004820152602160248201527f4552433732313a20617070726f76616c20746f2063757272656e74206f776e656044820152603960f91b60648201526084015b60405180910390fd5b806001600160a01b0316610726611e57565b6001600160a01b031614806107425750610742816104fd611e57565b6107b45760405162461bcd60e51b815260206004820152603d60248201527f4552433732313a20617070726f76652063616c6c6572206973206e6f7420746f60448201527f6b656e206f776e6572206f7220617070726f76656420666f7220616c6c000000606482015260840161070b565b6107be8383611e8b565b505050565b6000858152600c60205260409020546107ee5760405162461bcd60e51b815260040161070b90612dd8565b6000858152600c602052604090206009015460ff16156108485760405162461bcd60e51b815260206004820152601560248201527413d999995c881a5cc8185b1c9958591e481cdbdb19605a1b604482015260640161070b565b6000858152600c6020526040902060090154610100900460ff16156108af5760405162461bcd60e51b815260206004820152601a60248201527f4f6666657220697320616c72656164792063616e63656c6c6564000000000000604482015260640161070b565b6108b7611e57565b6000868152600c60205260409020600101546001600160a01b039081169116141561092f5760405162461bcd60e51b815260206004820152602260248201527f53656c6c6572732063616e6e6f7420627579207468656972206f776e206f666660448201526132b960f11b606482015260840161070b565b600a546001600160a01b03166370a08231610948611e57565b6040516001600160e01b031960e084901b1681526001600160a01b03909116600482015260240160206040518083038186803b15801561098757600080fd5b505afa15801561099b573d6000803e3d6000fd5b505050506040513d601f19601f820116820180604052508101906109bf9190612e06565b6000868152600c60205260409020600501541115610a145760405162461bcd60e51b81526020600482015260126024820152714e6f7420656e6f7567682062616c616e636560701b604482015260640161070b565b600a546001600160a01b031663d505accf610a2d611e57565b6000888152600c60205260409081902060050154905160e084901b6001600160e01b03191681526001600160a01b03909216600483015230602483015260448201526064810187905260ff8616608482015260a4810185905260c4810184905260e401600060405180830381600087803b158015610aaa57600080fd5b505af1158015610abe573d6000803e3d6000fd5b5050506000868152600c6020526040902060050154600a549091506001600160a01b031663dd62ed3e610aef611e57565b6040516001600160e01b031960e084901b1681526001600160a01b03909116600482015230602482015260440160206040518083038186803b158015610b3457600080fd5b505afa158015610b48573d6000803e3d6000fd5b505050506040513d601f19601f82011682018060405250810190610b6c9190612e06565b1015610bb15760405162461bcd60e51b81526020600482015260146024820152734e6f7420656e6f75676820616c6c6f77616e636560601b604482015260640161070b565b600a546000906001600160a01b03166323b872dd610bcd611e57565b6000898152600c60205260409081902060050154905160e084901b6001600160e01b03191681526001600160a01b0390921660048301523060248301526044820152606401602060405180830381600087803b158015610c2c57600080fd5b505af1158015610c40573d6000803e3d6000fd5b505050506040513d601f19601f82011682018060405250810190610c649190612e1f565b905080610ca95760405162461bcd60e51b81526020600482015260136024820152721d1c985b9cd9995c919c9bdb4819985a5b1959606a1b604482015260640161070b565b6000868152600c60205260409020600901805460ff19166001179055610ccd611e57565b6000878152600c602052604090206002810180546001600160a01b0319166001600160a01b039384161790556001810154600490910154610d149291909116903090611ef9565b610d1c611e57565b6001600160a01b0316867f040a2372445de7fb4e9211f1628dc9fe3d6fa936417ca189cfa6fe2d6dcde93a60405160405180910390a3505050505050565b610d6b610d65611e57565b8261205d565b610d875760405162461bcd60e51b815260040161070b90612e3c565b6107be838383611ef9565b600a546000906001600160a01b03166370a08231610dae611e57565b6040516001600160e01b031960e084901b1681526001600160a01b03909116600482015260240160206040518083038186803b158015610ded57600080fd5b505afa158015610e01573d6000803e3d6000fd5b505050506040513d601f19601f82011682018060405250810190610e259190612e06565b905080821115610e775760405162461bcd60e51b815260206004820152601a60248201527f4e6f7420656e6f75676820746f2062652077697468647261776e000000000000604482015260640161070b565b600b54821115610ec95760405162461bcd60e51b815260206004820152601e60248201527f57697468647261772069732063757272656e746c792064697361626c65640000604482015260640161070b565b6000610ed3611e57565b6001600160a01b03166108fc849081150290604051600060405180830381858888f19350505050905080610f375760405162461bcd60e51b815260206004820152600b60248201526a1cd95b990819985a5b195960aa1b604482015260640161070b565b600a546001600160a01b0316639dc29fac610f50611e57565b6040516001600160e01b031960e084901b1681526001600160a01b03909116600482015260248101869052604401600060405180830381600087803b158015610f9857600080fd5b505af1158015610fac573d6000803e3d6000fd5b50505050610fb8611e57565b6001600160a01b03167f884edad9ce6fa2440d8a54cc123490eb96d2768479d49ff9c7366125a942436484604051610ff291815260200190565b60405180910390a282600b600082825461100c9190612e9f565b9091555050505050565b6107be83838360405180602001604052806000815250611569565b6000818152600360205260408120546001600160a01b0316806105d75760405162461bcd60e51b8152602060048201526018602482015277115490cdcc8c4e881a5b9d985b1a59081d1bdad95b88125160421b604482015260640161070b565b6110996120db565b6000818152600c60205260409020546110c45760405162461bcd60e51b815260040161070b90612dd8565b6000818152600c602052604090206009015460ff1661111d5760405162461bcd60e51b815260206004820152601560248201527413d999995c881a5cc81b9bdd081cdbdb19081e595d605a1b604482015260640161070b565b6000818152600c602052604090206009015462010000900460ff16156111855760405162461bcd60e51b815260206004820152601a60248201527f4f6666657220697320616c726561647920636f6d706c65746564000000000000604482015260640161070b565b6000818152600c6020526040902060098101805460ff191690556002810180546001600160a01b031916905560018101546004909101546111d39130916001600160a01b0390911690611ef9565b600a546000828152600c6020526040908190206002810154600590910154915163a9059cbb60e01b81526001600160a01b03918216600482015260248101929092529091169063a9059cbb90604401602060405180830381600087803b15801561123c57600080fd5b505af1158015611250573d6000803e3d6000fd5b505050506040513d601f19601f820116820180604052508101906112749190612e1f565b5060405181907f44e5bc474621fb94604a76bb3928be984ea512d5530127542df840da9df2032690600090a250565b60006001600160a01b03821661130d5760405162461bcd60e51b815260206004820152602960248201527f4552433732313a2061646472657373207a65726f206973206e6f7420612076616044820152683634b21037bbb732b960b91b606482015260840161070b565b506001600160a01b031660009081526004602052604090205490565b6113316120db565b61133b6000612154565b565b6060600280546105ec90612d9d565b6113546120db565b6000818152600c602052604090205461137f5760405162461bcd60e51b815260040161070b90612dd8565b6000818152600c602052604090206009015460ff166113d85760405162461bcd60e51b815260206004820152601560248201527413d999995c881a5cc81b9bdd081cdbdb19081e595d605a1b604482015260640161070b565b6000818152600c602052604090206009015462010000900460ff16156114405760405162461bcd60e51b815260206004820152601a60248201527f4f6666657220697320616c726561647920636f6d706c65746564000000000000604482015260640161070b565b6000818152600c6020526040902060098101805462ff000019166201000017905560028101546004909101546114839130916001600160a01b0390911690611ef9565b600a546000828152600c6020526040908190206001810154600590910154915163a9059cbb60e01b81526001600160a01b03918216600482015260248101929092529091169063a9059cbb90604401602060405180830381600087803b1580156114ec57600080fd5b505af1158015611500573d6000803e3d6000fd5b505050506040513d601f19601f820116820180604052508101906115249190612e1f565b5060405181907fdc48e8bed1e41fc75a77f748857aaefb6496e7a354c5a4cbd4b22ea10fa4084c90600090a250565b61156561155e611e57565b83836121a4565b5050565b61157a611574611e57565b8361205d565b6115965760405162461bcd60e51b815260040161070b90612e3c565b6115a284848484612273565b50505050565b600087116115f85760405162461bcd60e51b815260206004820152601c60248201527f5072696365206d7573742062652067726561746572207468616e203000000000604482015260640161070b565b846116455760405162461bcd60e51b815260206004820152601b60248201527f4974656d206e616d65206d757374206e6f7420626520656d7074790000000000604482015260640161070b565b806116925760405162461bcd60e51b815260206004820152601b60248201527f546f6b656e20555249206d757374206e6f7420626520656d7074790000000000604482015260640161070b565b60006116db61169f611e57565b84848080601f0160208091040260200160405190810160405280939291908181526020018383808284376000920191909152506122a692505050565b905060006116e7611e57565b8260405160200161171692919060609290921b6bffffffffffffffffffffffff19168252601482015260340190565b604051602081830303815290604052805190602001209050604051806101800160405280828152602001611748611e57565b6001600160a01b0316815260200160006001600160a01b03168152602001306001600160a01b031681526020018381526020018a815260200189898080601f016020809104026020016040519081016040528093929190818152602001838380828437600092019190915250505090825250604080516020601f8a0181900481028201810190925288815291810191908990899081908401838280828437600092019190915250505090825250604080516020601f8801819004810282018101909252868152918101919087908790819084018382808284376000920182905250938552505050602080830182905260408084018390526060938401839052858352600c82529182902084518155848201516001820180546001600160a01b03199081166001600160a01b0393841617909155938601516002830180548616918316919091179055938501516003820180549094169416939093179091556080830151600483015560a0830151600583015560c083015180516118d192600685019201906128d4565b5060e082015180516118ed9160078401916020909101906128d4565b50610100820151805161190a9160088401916020909101906128d4565b5061012082015160099091018054610140840151610160909401511515620100000262ff0000199415156101000261ff00199415159490941661ffff1990921691909117929092179290921617905581611962611e57565b6001600160a01b0316827f44c6753a1a789ef93169cbfc6456408d5438d5406af5db10e342d351ce77f9b687878e8e8e8e8e6040516119a79796959493929190612edf565b60405180910390a4505050505050505050565b60606119c582611df8565b600082815260076020526040812080546119de90612d9d565b80601f0160208091040260200160405190810160405280929190818152602001828054611a0a90612d9d565b8015611a575780601f10611a2c57610100808354040283529160200191611a57565b820191906000526020600020905b815481529060010190602001808311611a3a57829003601f168201915b505050505090506000611a7560408051602081019091526000815290565b9050805160001415611a88575092915050565b815115611aba578082604051602001611aa2929190612f2f565b60405160208183030381529060405292505050919050565b611ac3846122de565b949350505050565b600a546040516340c10f1960e01b81523360048201523460248201526001600160a01b03909116906340c10f1990604401600060405180830381600087803b158015611b1657600080fd5b505af1158015611b2a573d6000803e3d6000fd5b5050505034600b6000828254611b409190612f5e565b909155505060405134815233907fe1fffcc4923d04b559f4d29a8bfc6cda04eb5b0d3c460751c2402c5c5cc9109c9060200160405180910390a2565b611b846120db565b600880546001600160a01b0319166001600160a01b03831617905550565b50565b611bad6120db565b6001600160a01b038116611c125760405162461bcd60e51b815260206004820152602660248201527f4f776e61626c653a206e6577206f776e657220697320746865207a65726f206160448201526564647265737360d01b606482015260840161070b565b611ba281612154565b611c236120db565b600a80546001600160a01b0319166001600160a01b0392909216919091179055565b6000818152600c6020526040902054611c705760405162461bcd60e51b815260040161070b90612dd8565b611c78611e57565b6000828152600c60205260409020600101546001600160a01b03908116911614611cdd5760405162461bcd60e51b815260206004820152601660248201527513db9b1e481cd95b1b195c8818d85b8818d85b98d95b60521b604482015260640161070b565b6000818152600c602052604090206009015460ff1615611d375760405162461bcd60e51b815260206004820152601560248201527413d999995c881a5cc8185b1c9958591e481cdbdb19605a1b604482015260640161070b565b6000818152600c6020526040902060090154610100900460ff1615611d9e5760405162461bcd60e51b815260206004820152601a60248201527f4f6666657220697320616c72656164792063616e63656c6c6564000000000000604482015260640161070b565b6000818152600c6020526040902060098101805461ff00191661010017905560040154611dca90612351565b60405181907f6917c54e363c87122ded2db643033caa7634085108272a134387eb8e5ddee76290600090a250565b6000818152600360205260409020546001600160a01b0316611ba25760405162461bcd60e51b8152602060048201526018602482015277115490cdcc8c4e881a5b9d985b1a59081d1bdad95b88125160421b604482015260640161070b565b600060143610801590611e7457506008546001600160a01b031633145b15611e86575060131936013560601c90565b503390565b600081815260056020526040902080546001600160a01b0319166001600160a01b0384169081179091558190611ec082611031565b6001600160a01b03167f8c5be1e5ebec7d5bd14f71427d1e84f3dd0314c0f7b2291e5b200ac8c7c3b92560405160405180910390a45050565b826001600160a01b0316611f0c82611031565b6001600160a01b031614611f325760405162461bcd60e51b815260040161070b90612f76565b6001600160a01b038216611f945760405162461bcd60e51b8152602060048201526024808201527f4552433732313a207472616e7366657220746f20746865207a65726f206164646044820152637265737360e01b606482015260840161070b565b826001600160a01b0316611fa782611031565b6001600160a01b031614611fcd5760405162461bcd60e51b815260040161070b90612f76565b600081815260056020908152604080832080546001600160a01b03199081169091556001600160a01b0387811680865260048552838620805460001901905590871680865283862080546001019055868652600390945282852080549092168417909155905184937fddf252ad1be2c89b69c2b068fc378daa952ba7f163c4a11628f55a4df523b3ef91a4505050565b60008061206983611031565b9050806001600160a01b0316846001600160a01b031614806120b057506001600160a01b0380821660009081526006602090815260408083209388168352929052205460ff165b80611ac35750836001600160a01b03166120c98461066f565b6001600160a01b031614949350505050565b6120e3611e57565b6001600160a01b03166120fe6000546001600160a01b031690565b6001600160a01b03161461133b5760405162461bcd60e51b815260206004820181905260248201527f4f776e61626c653a2063616c6c6572206973206e6f7420746865206f776e6572604482015260640161070b565b600080546001600160a01b038381166001600160a01b0319831681178455604051919092169283917f8be0079c531659141344cd1fd0a4f28419497f9722a3daafe3b4186f6b6457e09190a35050565b816001600160a01b0316836001600160a01b031614156122065760405162461bcd60e51b815260206004820152601960248201527f4552433732313a20617070726f766520746f2063616c6c657200000000000000604482015260640161070b565b6001600160a01b03838116600081815260066020908152604080832094871680845294825291829020805460ff191686151590811790915591519182527f17307eab39ab6107e8899845ad3d59bd9653f200f220920489ca2b5937696c31910160405180910390a3505050565b61227e848484611ef9565b61228a84848484612391565b6115a25760405162461bcd60e51b815260040161070b90612fbb565b60006122b6600980546001019055565b60006122c160095490565b90506122cd84826124a5565b6122d78184612630565b9392505050565b60606122e982611df8565b600061230060408051602081019091526000815290565b9050600081511161232057604051806020016040528060008152506122d7565b8061232a846126ca565b60405160200161233b929190612f2f565b6040516020818303038152906040529392505050565b61235a81612767565b6000818152600760205260409020805461237390612d9d565b159050611ba2576000818152600760205260408120611ba291612958565b60006001600160a01b0384163b1561249a57836001600160a01b031663150b7a026123ba611e57565b8786866040518563ffffffff1660e01b81526004016123dc949392919061300d565b602060405180830381600087803b1580156123f657600080fd5b505af1925050508015612426575060408051601f3d908101601f191682019092526124239181019061304a565b60015b612480573d808015612454576040519150601f19603f3d011682016040523d82523d6000602084013e612459565b606091505b5080516124785760405162461bcd60e51b815260040161070b90612fbb565b805181602001fd5b6001600160e01b031916630a85bd0160e11b149050611ac3565b506001949350505050565b6001600160a01b0382166124fb5760405162461bcd60e51b815260206004820181905260248201527f4552433732313a206d696e7420746f20746865207a65726f2061646472657373604482015260640161070b565b6000818152600360205260409020546001600160a01b0316156125605760405162461bcd60e51b815260206004820152601c60248201527f4552433732313a20746f6b656e20616c7265616479206d696e74656400000000604482015260640161070b565b6000818152600360205260409020546001600160a01b0316156125c55760405162461bcd60e51b815260206004820152601c60248201527f4552433732313a20746f6b656e20616c7265616479206d696e74656400000000604482015260640161070b565b6001600160a01b038216600081815260046020908152604080832080546001019055848352600390915280822080546001600160a01b0319168417905551839291907fddf252ad1be2c89b69c2b068fc378daa952ba7f163c4a11628f55a4df523b3ef908290a45050565b6000828152600360205260409020546001600160a01b03166126ab5760405162461bcd60e51b815260206004820152602e60248201527f45524337323155524953746f726167653a2055524920736574206f66206e6f6e60448201526d32bc34b9ba32b73a103a37b5b2b760911b606482015260840161070b565b600082815260076020908152604090912082516107be928401906128d4565b606060006126d7836127fc565b600101905060008167ffffffffffffffff8111156126f7576126f7612b8b565b6040519080825280601f01601f191660200182016040528015612721576020820181803683370190505b5090508181016020015b600019016f181899199a1a9b1b9c1cb0b131b232b360811b600a86061a8153600a850494508461275a5761275f565b61272b565b509392505050565b600061277282611031565b905061277d82611031565b600083815260056020908152604080832080546001600160a01b03199081169091556001600160a01b0385168085526004845282852080546000190190558785526003909352818420805490911690555192935084927fddf252ad1be2c89b69c2b068fc378daa952ba7f163c4a11628f55a4df523b3ef908390a45050565b60008072184f03e93ff9f4daa797ed6e38ed64bf6a1f0160401b831061283b5772184f03e93ff9f4daa797ed6e38ed64bf6a1f0160401b830492506040015b6d04ee2d6d415b85acef81000000008310612867576d04ee2d6d415b85acef8100000000830492506020015b662386f26fc10000831061288557662386f26fc10000830492506010015b6305f5e100831061289d576305f5e100830492506008015b61271083106128b157612710830492506004015b606483106128c3576064830492506002015b600a83106105d75760010192915050565b8280546128e090612d9d565b90600052602060002090601f0160209004810192826129025760008555612948565b82601f1061291b57805160ff1916838001178555612948565b82800160010185558215612948579182015b8281111561294857825182559160200191906001019061292d565b5061295492915061298e565b5090565b50805461296490612d9d565b6000825580601f10612974575050565b601f016020900490600052602060002090810190611ba291905b5b80821115612954576000815560010161298f565b6001600160e01b031981168114611ba257600080fd5b6000602082840312156129cb57600080fd5b81356122d7816129a3565b60005b838110156129f15781810151838201526020016129d9565b838111156115a25750506000910152565b60008151808452612a1a8160208601602086016129d6565b601f01601f19169290920160200192915050565b6020815260006122d76020830184612a02565b600060208284031215612a5357600080fd5b5035919050565b80356001600160a01b0381168114612a7157600080fd5b919050565b60008060408385031215612a8957600080fd5b612a9283612a5a565b946020939093013593505050565b600080600080600060a08688031215612ab857600080fd5b8535945060208601359350604086013560ff81168114612ad757600080fd5b94979396509394606081013594506080013592915050565b600080600060608486031215612b0457600080fd5b612b0d84612a5a565b9250612b1b60208501612a5a565b9150604084013590509250925092565b600060208284031215612b3d57600080fd5b6122d782612a5a565b8015158114611ba257600080fd5b60008060408385031215612b6757600080fd5b612b7083612a5a565b91506020830135612b8081612b46565b809150509250929050565b634e487b7160e01b600052604160045260246000fd5b60008060008060808587031215612bb757600080fd5b612bc085612a5a565b9350612bce60208601612a5a565b925060408501359150606085013567ffffffffffffffff80821115612bf257600080fd5b818701915087601f830112612c0657600080fd5b813581811115612c1857612c18612b8b565b604051601f8201601f19908116603f01168101908382118183101715612c4057612c40612b8b565b816040528281528a6020848701011115612c5957600080fd5b82602086016020830137600060208483010152809550505050505092959194509250565b60008083601f840112612c8f57600080fd5b50813567ffffffffffffffff811115612ca757600080fd5b602083019150836020828501011115612cbf57600080fd5b9250929050565b60008060008060008060006080888a031215612ce157600080fd5b87359650602088013567ffffffffffffffff80821115612d0057600080fd5b612d0c8b838c01612c7d565b909850965060408a0135915080821115612d2557600080fd5b612d318b838c01612c7d565b909650945060608a0135915080821115612d4a57600080fd5b50612d578a828b01612c7d565b989b979a50959850939692959293505050565b60008060408385031215612d7d57600080fd5b612d8683612a5a565b9150612d9460208401612a5a565b90509250929050565b600181811c90821680612db157607f821691505b60208210811415612dd257634e487b7160e01b600052602260045260246000fd5b50919050565b60208082526014908201527313d999995c88191bd95cc81b9bdd08195e1a5cdd60621b604082015260600190565b600060208284031215612e1857600080fd5b5051919050565b600060208284031215612e3157600080fd5b81516122d781612b46565b6020808252602d908201527f4552433732313a2063616c6c6572206973206e6f7420746f6b656e206f776e6560408201526c1c881bdc88185c1c1c9bdd9959609a1b606082015260800190565b634e487b7160e01b600052601160045260246000fd5b600082821015612eb157612eb1612e89565b500390565b81835281816020850137506000828201602090810191909152601f909101601f19169091010190565b608081526000612ef360808301898b612eb6565b8760208401528281036040840152612f0c818789612eb6565b90508281036060840152612f21818587612eb6565b9a9950505050505050505050565b60008351612f418184602088016129d6565b835190830190612f558183602088016129d6565b01949350505050565b60008219821115612f7157612f71612e89565b500190565b60208082526025908201527f4552433732313a207472616e736665722066726f6d20696e636f72726563742060408201526437bbb732b960d91b606082015260800190565b60208082526032908201527f4552433732313a207472616e7366657220746f206e6f6e20455243373231526560408201527131b2b4bb32b91034b6b83632b6b2b73a32b960711b606082015260800190565b6001600160a01b038581168252841660208201526040810183905260806060820181905260009061304090830184612a02565b9695505050505050565b60006020828403121561305c57600080fd5b81516122d7816129a356fea26469706673582212201ef728e7a74c42a69b6570f137c7593f1600d0490701f65d925ad8ecc1168d9f64736f6c63430008090033",
  "linkReferences": {},
  "deployedLinkReferences": {}
}