{
    "_format": "hh-sol-artifact-1",
    "contractName": "Marketplace",
    "sourceName": "contracts/Marketplace.sol",
    "abi": [
        {
            "inputs": [
                {
                    "internalType": "address",
                    "name": "_tokenAddress",
                    "type": "address"
                },
                {
                    "internalType": "address",
                    "name": "_trustedForwarder",
                    "type": "address"
                }
            ],
            "stateMutability": "nonpayable",
            "type": "constructor"
        },
        {
            "anonymous": false,
            "inputs": [
                {
                    "indexed": true,
                    "internalType": "address",
                    "name": "owner",
                    "type": "address"
                },
                {
                    "indexed": true,
                    "internalType": "address",
                    "name": "approved",
                    "type": "address"
                },
                {
                    "indexed": true,
                    "internalType": "uint256",
                    "name": "tokenId",
                    "type": "uint256"
                }
            ],
            "name": "Approval",
            "type": "event"
        },
        {
            "anonymous": false,
            "inputs": [
                {
                    "indexed": true,
                    "internalType": "address",
                    "name": "owner",
                    "type": "address"
                },
                {
                    "indexed": true,
                    "internalType": "address",
                    "name": "operator",
                    "type": "address"
                },
                {
                    "indexed": false,
                    "internalType": "bool",
                    "name": "approved",
                    "type": "bool"
                }
            ],
            "name": "ApprovalForAll",
            "type": "event"
        },
        {
            "anonymous": false,
            "inputs": [
                {
                    "indexed": true,
                    "internalType": "bytes32",
                    "name": "offerId",
                    "type": "bytes32"
                },
                {
                    "indexed": true,
                    "internalType": "address",
                    "name": "buyer",
                    "type": "address"
                }
            ],
            "name": "BuyOffer",
            "type": "event"
        },
        {
            "anonymous": false,
            "inputs": [
                {
                    "indexed": true,
                    "internalType": "bytes32",
                    "name": "offerId",
                    "type": "bytes32"
                }
            ],
            "name": "CancelOffer",
            "type": "event"
        },
        {
            "anonymous": false,
            "inputs": [
                {
                    "indexed": true,
                    "internalType": "bytes32",
                    "name": "offerId",
                    "type": "bytes32"
                },
                {
                    "indexed": true,
                    "internalType": "address",
                    "name": "seller",
                    "type": "address"
                },
                {
                    "indexed": true,
                    "internalType": "uint256",
                    "name": "tokenId",
                    "type": "uint256"
                },
                {
                    "indexed": false,
                    "internalType": "string",
                    "name": "tokenURI",
                    "type": "string"
                },
                {
                    "indexed": false,
                    "internalType": "uint256",
                    "name": "price",
                    "type": "uint256"
                },
                {
                    "indexed": false,
                    "internalType": "string",
                    "name": "itemName",
                    "type": "string"
                },
                {
                    "indexed": false,
                    "internalType": "string",
                    "name": "itemImage",
                    "type": "string"
                }
            ],
            "name": "CreateOffer",
            "type": "event"
        },
        {
            "anonymous": false,
            "inputs": [
                {
                    "indexed": true,
                    "internalType": "address",
                    "name": "sender",
                    "type": "address"
                },
                {
                    "indexed": false,
                    "internalType": "uint256",
                    "name": "amount",
                    "type": "uint256"
                }
            ],
            "name": "Deposit",
            "type": "event"
        },
        {
            "anonymous": false,
            "inputs": [
                {
                    "indexed": true,
                    "internalType": "address",
                    "name": "previousOwner",
                    "type": "address"
                },
                {
                    "indexed": true,
                    "internalType": "address",
                    "name": "newOwner",
                    "type": "address"
                }
            ],
            "name": "OwnershipTransferred",
            "type": "event"
        },
        {
            "anonymous": false,
            "inputs": [
                {
                    "indexed": true,
                    "internalType": "address",
                    "name": "from",
                    "type": "address"
                },
                {
                    "indexed": true,
                    "internalType": "address",
                    "name": "to",
                    "type": "address"
                },
                {
                    "indexed": true,
                    "internalType": "uint256",
                    "name": "tokenId",
                    "type": "uint256"
                }
            ],
            "name": "Transfer",
            "type": "event"
        },
        {
            "anonymous": false,
            "inputs": [
                {
                    "indexed": true,
                    "internalType": "address",
                    "name": "sender",
                    "type": "address"
                },
                {
                    "indexed": false,
                    "internalType": "uint256",
                    "name": "amount",
                    "type": "uint256"
                }
            ],
            "name": "Withdraw",
            "type": "event"
        },
        {
            "inputs": [
                {
                    "internalType": "address",
                    "name": "to",
                    "type": "address"
                },
                {
                    "internalType": "uint256",
                    "name": "tokenId",
                    "type": "uint256"
                }
            ],
            "name": "approve",
            "outputs": [],
            "stateMutability": "nonpayable",
            "type": "function"
        },
        {
            "inputs": [
                {
                    "internalType": "address",
                    "name": "owner",
                    "type": "address"
                }
            ],
            "name": "balanceOf",
            "outputs": [
                {
                    "internalType": "uint256",
                    "name": "",
                    "type": "uint256"
                }
            ],
            "stateMutability": "view",
            "type": "function"
        },
        {
            "inputs": [
                {
                    "internalType": "bytes32",
                    "name": "offerId",
                    "type": "bytes32"
                },
                {
                    "internalType": "uint256",
                    "name": "deadline",
                    "type": "uint256"
                },
                {
                    "internalType": "uint8",
                    "name": "v",
                    "type": "uint8"
                },
                {
                    "internalType": "bytes32",
                    "name": "r",
                    "type": "bytes32"
                },
                {
                    "internalType": "bytes32",
                    "name": "s",
                    "type": "bytes32"
                }
            ],
            "name": "buyOffer",
            "outputs": [],
            "stateMutability": "nonpayable",
            "type": "function"
        },
        {
            "inputs": [
                {
                    "internalType": "bytes32",
                    "name": "offerId",
                    "type": "bytes32"
                }
            ],
            "name": "cancelOffer",
            "outputs": [],
            "stateMutability": "nonpayable",
            "type": "function"
        },
        {
            "inputs": [
                {
                    "internalType": "uint256",
                    "name": "price",
                    "type": "uint256"
                },
                {
                    "internalType": "string",
                    "name": "itemName",
                    "type": "string"
                },
                {
                    "internalType": "string",
                    "name": "itemImage",
                    "type": "string"
                },
                {
                    "internalType": "string",
                    "name": "tokenURI",
                    "type": "string"
                }
            ],
            "name": "createOffer",
            "outputs": [],
            "stateMutability": "nonpayable",
            "type": "function"
        },
        {
            "inputs": [],
            "name": "deposit",
            "outputs": [],
            "stateMutability": "payable",
            "type": "function"
        },
        {
            "inputs": [
                {
                    "internalType": "uint256",
                    "name": "tokenId",
                    "type": "uint256"
                }
            ],
            "name": "getApproved",
            "outputs": [
                {
                    "internalType": "address",
                    "name": "",
                    "type": "address"
                }
            ],
            "stateMutability": "view",
            "type": "function"
        },
        {
            "inputs": [],
            "name": "getTrustedForwarder",
            "outputs": [
                {
                    "internalType": "address",
                    "name": "forwarder",
                    "type": "address"
                }
            ],
            "stateMutability": "view",
            "type": "function"
        },
        {
            "inputs": [
                {
                    "internalType": "address",
                    "name": "owner",
                    "type": "address"
                },
                {
                    "internalType": "address",
                    "name": "operator",
                    "type": "address"
                }
            ],
            "name": "isApprovedForAll",
            "outputs": [
                {
                    "internalType": "bool",
                    "name": "",
                    "type": "bool"
                }
            ],
            "stateMutability": "view",
            "type": "function"
        },
        {
            "inputs": [
                {
                    "internalType": "address",
                    "name": "forwarder",
                    "type": "address"
                }
            ],
            "name": "isTrustedForwarder",
            "outputs": [
                {
                    "internalType": "bool",
                    "name": "",
                    "type": "bool"
                }
            ],
            "stateMutability": "view",
            "type": "function"
        },
        {
            "inputs": [],
            "name": "name",
            "outputs": [
                {
                    "internalType": "string",
                    "name": "",
                    "type": "string"
                }
            ],
            "stateMutability": "view",
            "type": "function"
        },
        {
            "inputs": [],
            "name": "owner",
            "outputs": [
                {
                    "internalType": "address",
                    "name": "",
                    "type": "address"
                }
            ],
            "stateMutability": "view",
            "type": "function"
        },
        {
            "inputs": [
                {
                    "internalType": "uint256",
                    "name": "tokenId",
                    "type": "uint256"
                }
            ],
            "name": "ownerOf",
            "outputs": [
                {
                    "internalType": "address",
                    "name": "",
                    "type": "address"
                }
            ],
            "stateMutability": "view",
            "type": "function"
        },
        {
            "inputs": [],
            "name": "renounceOwnership",
            "outputs": [],
            "stateMutability": "nonpayable",
            "type": "function"
        },
        {
            "inputs": [
                {
                    "internalType": "address",
                    "name": "from",
                    "type": "address"
                },
                {
                    "internalType": "address",
                    "name": "to",
                    "type": "address"
                },
                {
                    "internalType": "uint256",
                    "name": "tokenId",
                    "type": "uint256"
                }
            ],
            "name": "safeTransferFrom",
            "outputs": [],
            "stateMutability": "nonpayable",
            "type": "function"
        },
        {
            "inputs": [
                {
                    "internalType": "address",
                    "name": "from",
                    "type": "address"
                },
                {
                    "internalType": "address",
                    "name": "to",
                    "type": "address"
                },
                {
                    "internalType": "uint256",
                    "name": "tokenId",
                    "type": "uint256"
                },
                {
                    "internalType": "bytes",
                    "name": "data",
                    "type": "bytes"
                }
            ],
            "name": "safeTransferFrom",
            "outputs": [],
            "stateMutability": "nonpayable",
            "type": "function"
        },
        {
            "inputs": [
                {
                    "internalType": "address",
                    "name": "operator",
                    "type": "address"
                },
                {
                    "internalType": "bool",
                    "name": "approved",
                    "type": "bool"
                }
            ],
            "name": "setApprovalForAll",
            "outputs": [],
            "stateMutability": "nonpayable",
            "type": "function"
        },
        {
            "inputs": [
                {
                    "internalType": "address",
                    "name": "_tokenAddress",
                    "type": "address"
                }
            ],
            "name": "setS2LContract",
            "outputs": [],
            "stateMutability": "nonpayable",
            "type": "function"
        },
        {
            "inputs": [
                {
                    "internalType": "address",
                    "name": "_trustedForwarder",
                    "type": "address"
                }
            ],
            "name": "setTrustedForwarder",
            "outputs": [],
            "stateMutability": "nonpayable",
            "type": "function"
        },
        {
            "inputs": [
                {
                    "internalType": "bytes4",
                    "name": "interfaceId",
                    "type": "bytes4"
                }
            ],
            "name": "supportsInterface",
            "outputs": [
                {
                    "internalType": "bool",
                    "name": "",
                    "type": "bool"
                }
            ],
            "stateMutability": "view",
            "type": "function"
        },
        {
            "inputs": [],
            "name": "symbol",
            "outputs": [
                {
                    "internalType": "string",
                    "name": "",
                    "type": "string"
                }
            ],
            "stateMutability": "view",
            "type": "function"
        },
        {
            "inputs": [
                {
                    "internalType": "uint256",
                    "name": "tokenId",
                    "type": "uint256"
                }
            ],
            "name": "tokenURI",
            "outputs": [
                {
                    "internalType": "string",
                    "name": "",
                    "type": "string"
                }
            ],
            "stateMutability": "view",
            "type": "function"
        },
        {
            "inputs": [
                {
                    "internalType": "address",
                    "name": "from",
                    "type": "address"
                },
                {
                    "internalType": "address",
                    "name": "to",
                    "type": "address"
                },
                {
                    "internalType": "uint256",
                    "name": "tokenId",
                    "type": "uint256"
                }
            ],
            "name": "transferFrom",
            "outputs": [],
            "stateMutability": "nonpayable",
            "type": "function"
        },
        {
            "inputs": [
                {
                    "internalType": "address",
                    "name": "newOwner",
                    "type": "address"
                }
            ],
            "name": "transferOwnership",
            "outputs": [],
            "stateMutability": "nonpayable",
            "type": "function"
        },
        {
            "inputs": [
                {
                    "internalType": "uint256",
                    "name": "amount",
                    "type": "uint256"
                }
            ],
            "name": "withdraw",
            "outputs": [],
            "stateMutability": "nonpayable",
            "type": "function"
        }
    ],
    "bytecode": "0x60806040526000600b553480156200001657600080fd5b5060405162002e1d38038062002e1d833981016040819052620000399162000252565b6040518060400160405280600981526020016813d999995c8813919560ba1b8152506040518060400160405280600381526020016213919560ea1b815250620000916200008b6200010960201b60201c565b6200013f565b8151620000a69060019060208501906200018f565b508051620000bc9060029060208401906200018f565b5050600a80546001600160a01b0319166001600160a01b038516179055506200010181600880546001600160a01b0319166001600160a01b0392909216919091179055565b5050620002c7565b6000601436108015906200012757506008546001600160a01b031633145b156200013a575060131936013560601c90565b503390565b600080546001600160a01b038381166001600160a01b0319831681178455604051919092169283917f8be0079c531659141344cd1fd0a4f28419497f9722a3daafe3b4186f6b6457e09190a35050565b8280546200019d906200028a565b90600052602060002090601f016020900481019282620001c157600085556200020c565b82601f10620001dc57805160ff19168380011785556200020c565b828001600101855582156200020c579182015b828111156200020c578251825591602001919060010190620001ef565b506200021a9291506200021e565b5090565b5b808211156200021a57600081556001016200021f565b80516001600160a01b03811681146200024d57600080fd5b919050565b600080604083850312156200026657600080fd5b620002718362000235565b9150620002816020840162000235565b90509250929050565b600181811c908216806200029f57607f821691505b60208210811415620002c157634e487b7160e01b600052602260045260246000fd5b50919050565b612b4680620002d76000396000f3fe6080604052600436106101665760003560e01c80638da5cb5b116100d1578063ce1b815f1161008a578063e985e9c511610064578063e985e9c514610427578063f2fde38b14610470578063f58614c814610490578063f952279e146104b057600080fd5b8063ce1b815f146103e1578063d0e30db0146103ff578063da7422281461040757600080fd5b80638da5cb5b1461032e57806395d89b411461034c578063a22cb46514610361578063b88d4fde14610381578063c74d9498146103a1578063c87b56dd146103c157600080fd5b80632e1a7d4d116101235780632e1a7d4d1461025c57806342842e0e1461027c578063572b6c051461029c5780636352211e146102cb57806370a08231146102eb578063715018a61461031957600080fd5b806301ffc9a71461016b57806306fdde03146101a0578063081812fc146101c2578063095ea7b3146101fa57806311f94e391461021c57806323b872dd1461023c575b600080fd5b34801561017757600080fd5b5061018b610186366004612490565b6104d0565b60405190151581526020015b60405180910390f35b3480156101ac57600080fd5b506101b5610522565b6040516101979190612505565b3480156101ce57600080fd5b506101e26101dd366004612518565b6105b4565b6040516001600160a01b039091168152602001610197565b34801561020657600080fd5b5061021a61021536600461254d565b6105db565b005b34801561022857600080fd5b5061021a610237366004612577565b610708565b34801561024857600080fd5b5061021a6102573660046125c6565b610c85565b34801561026857600080fd5b5061021a610277366004612518565b610cbd565b34801561028857600080fd5b5061021a6102973660046125c6565b610f41565b3480156102a857600080fd5b5061018b6102b7366004612602565b6008546001600160a01b0391821691161490565b3480156102d757600080fd5b506101e26102e6366004612518565b610f5c565b3480156102f757600080fd5b5061030b610306366004612602565b610fbc565b604051908152602001610197565b34801561032557600080fd5b5061021a611042565b34801561033a57600080fd5b506000546001600160a01b03166101e2565b34801561035857600080fd5b506101b5611056565b34801561036d57600080fd5b5061021a61037c36600461262b565b611065565b34801561038d57600080fd5b5061021a61039c366004612678565b61107b565b3480156103ad57600080fd5b5061021a6103bc36600461279d565b6110ba565b3480156103cd57600080fd5b506101b56103dc366004612518565b611494565b3480156103ed57600080fd5b506008546001600160a01b03166101e2565b61021a6115a5565b34801561041357600080fd5b5061021a610422366004612602565b611681565b34801561043357600080fd5b5061018b610442366004612841565b6001600160a01b03918216600090815260066020908152604080832093909416825291909152205460ff1690565b34801561047c57600080fd5b5061021a61048b366004612602565b6116aa565b34801561049c57600080fd5b5061021a6104ab366004612602565b611720565b3480156104bc57600080fd5b5061021a6104cb366004612518565b61174a565b60006001600160e01b031982166380ac58cd60e01b148061050157506001600160e01b03198216635b5e139f60e01b145b8061051c57506301ffc9a760e01b6001600160e01b03198316145b92915050565b60606001805461053190612874565b80601f016020809104026020016040519081016040528092919081815260200182805461055d90612874565b80156105aa5780601f1061057f576101008083540402835291602001916105aa565b820191906000526020600020905b81548152906001019060200180831161058d57829003601f168201915b5050505050905090565b60006105bf826118cf565b506000908152600560205260409020546001600160a01b031690565b60006105e682610f5c565b9050806001600160a01b0316836001600160a01b031614156106595760405162461bcd60e51b815260206004820152602160248201527f4552433732313a20617070726f76616c20746f2063757272656e74206f776e656044820152603960f91b60648201526084015b60405180910390fd5b806001600160a01b031661066b61192e565b6001600160a01b0316148061068757506106878161044261192e565b6106f95760405162461bcd60e51b815260206004820152603d60248201527f4552433732313a20617070726f76652063616c6c6572206973206e6f7420746f60448201527f6b656e206f776e6572206f7220617070726f76656420666f7220616c6c0000006064820152608401610650565b6107038383611962565b505050565b6000858152600c602052604090206008015460ff16156107625760405162461bcd60e51b815260206004820152601560248201527413d999995c881a5cc8185b1c9958591e481cdbdb19605a1b6044820152606401610650565b6000858152600c6020526040902060080154610100900460ff16156107c95760405162461bcd60e51b815260206004820152601a60248201527f4f6666657220697320616c72656164792063616e63656c6c65640000000000006044820152606401610650565b6107d161192e565b6000868152600c60205260409020546001600160a01b03908116911614156108465760405162461bcd60e51b815260206004820152602260248201527f53656c6c6572732063616e6e6f7420627579207468656972206f776e206f666660448201526132b960f11b6064820152608401610650565b600a546001600160a01b03166370a0823161085f61192e565b6040516001600160e01b031960e084901b1681526001600160a01b03909116600482015260240160206040518083038186803b15801561089e57600080fd5b505afa1580156108b2573d6000803e3d6000fd5b505050506040513d601f19601f820116820180604052508101906108d691906128af565b6000868152600c6020526040902060040154111561092b5760405162461bcd60e51b81526020600482015260126024820152714e6f7420656e6f7567682062616c616e636560701b6044820152606401610650565b600a546001600160a01b031663d505accf61094461192e565b6000888152600c60205260409081902060049081015491516001600160e01b031960e086901b1681526001600160a01b039093169083015230602483015260448201526064810187905260ff8616608482015260a4810185905260c4810184905260e401600060405180830381600087803b1580156109c257600080fd5b505af11580156109d6573d6000803e3d6000fd5b5050506000868152600c6020526040902060040154600a549091506001600160a01b031663dd62ed3e610a0761192e565b6040516001600160e01b031960e084901b1681526001600160a01b03909116600482015230602482015260440160206040518083038186803b158015610a4c57600080fd5b505afa158015610a60573d6000803e3d6000fd5b505050506040513d601f19601f82011682018060405250810190610a8491906128af565b1015610ac95760405162461bcd60e51b81526020600482015260146024820152734e6f7420656e6f75676820616c6c6f77616e636560601b6044820152606401610650565b600a546000906001600160a01b03166323b872dd610ae561192e565b6000898152600c6020526040908190208054600491820154925160e086901b6001600160e01b03191681526001600160a01b03948516928101929092529290921660248301526044820152606401602060405180830381600087803b158015610b4d57600080fd5b505af1158015610b61573d6000803e3d6000fd5b505050506040513d601f19601f82011682018060405250810190610b8591906128c8565b905080610bca5760405162461bcd60e51b81526020600482015260136024820152721d1c985b9cd9995c919c9bdb4819985a5b1959606a1b6044820152606401610650565b6000868152600c60205260409020600801805460ff19166001179055610bee61192e565b6000878152600c602052604090206001810180546001600160a01b0319166001600160a01b0393841617905554610c3f9116610c2861192e565b6000898152600c60205260409020600301546119d0565b610c4761192e565b6001600160a01b0316867f040a2372445de7fb4e9211f1628dc9fe3d6fa936417ca189cfa6fe2d6dcde93a60405160405180910390a3505050505050565b610c96610c9061192e565b82611b34565b610cb25760405162461bcd60e51b8152600401610650906128e5565b6107038383836119d0565b600a546000906001600160a01b03166370a08231610cd961192e565b6040516001600160e01b031960e084901b1681526001600160a01b03909116600482015260240160206040518083038186803b158015610d1857600080fd5b505afa158015610d2c573d6000803e3d6000fd5b505050506040513d601f19601f82011682018060405250810190610d5091906128af565b905080821115610da25760405162461bcd60e51b815260206004820152601a60248201527f4e6f7420656e6f75676820746f2062652077697468647261776e0000000000006044820152606401610650565b600b54821115610df45760405162461bcd60e51b815260206004820152601e60248201527f57697468647261772069732063757272656e746c792064697361626c656400006044820152606401610650565b6000610dfe61192e565b6001600160a01b03166108fc849081150290604051600060405180830381858888f19350505050905080610e625760405162461bcd60e51b815260206004820152600b60248201526a1cd95b990819985a5b195960aa1b6044820152606401610650565b600a546001600160a01b0316639dc29fac610e7b61192e565b6040516001600160e01b031960e084901b1681526001600160a01b03909116600482015260248101869052604401600060405180830381600087803b158015610ec357600080fd5b505af1158015610ed7573d6000803e3d6000fd5b50505050610ee361192e565b6001600160a01b03167f884edad9ce6fa2440d8a54cc123490eb96d2768479d49ff9c7366125a942436484604051610f1d91815260200190565b60405180910390a282600b6000828254610f379190612948565b9091555050505050565b6107038383836040518060200160405280600081525061107b565b6000818152600360205260408120546001600160a01b03168061051c5760405162461bcd60e51b8152602060048201526018602482015277115490cdcc8c4e881a5b9d985b1a59081d1bdad95b88125160421b6044820152606401610650565b60006001600160a01b0382166110265760405162461bcd60e51b815260206004820152602960248201527f4552433732313a2061646472657373207a65726f206973206e6f7420612076616044820152683634b21037bbb732b960b91b6064820152608401610650565b506001600160a01b031660009081526004602052604090205490565b61104a611bb2565b6110546000611c2b565b565b60606002805461053190612874565b61107761107061192e565b8383611c7b565b5050565b61108c61108661192e565b83611b34565b6110a85760405162461bcd60e51b8152600401610650906128e5565b6110b484848484611d4a565b50505050565b6000871161110a5760405162461bcd60e51b815260206004820152601c60248201527f5072696365206d7573742062652067726561746572207468616e2030000000006044820152606401610650565b846111575760405162461bcd60e51b815260206004820152601b60248201527f4974656d206e616d65206d757374206e6f7420626520656d70747900000000006044820152606401610650565b806111a45760405162461bcd60e51b815260206004820152601b60248201527f546f6b656e20555249206d757374206e6f7420626520656d70747900000000006044820152606401610650565b60006111ed6111b161192e565b84848080601f016020809104026020016040519081016040528093929190818152602001838380828437600092019190915250611d7d92505050565b905060006111f961192e565b8260405160200161122892919060609290921b6bffffffffffffffffffffffff19168252601482015260340190565b60405160208183030381529060405280519060200120905060405180610140016040528061125461192e565b6001600160a01b0316815260200160006001600160a01b03168152602001306001600160a01b031681526020018381526020018a815260200189898080601f016020809104026020016040519081016040528093929190818152602001838380828437600092019190915250505090825250604080516020601f8a0181900481028201810190925288815291810191908990899081908401838280828437600092019190915250505090825250604080516020601f880181900481028201810190925286815291810191908790879081908401838280828437600092018290525093855250505060208083018290526040928301829052848252600c815290829020835181546001600160a01b03199081166001600160a01b0392831617835585840151600184018054831691841691909117905593850151600283018054909516911617909255606083015160038301556080830151600483015560a083015180516113c792600585019201906123ab565b5060c082015180516113e39160068401916020909101906123ab565b5060e082015180516113ff9160078401916020909101906123ab565b50610100828101516008909201805461012090940151151590910261ff00199215159290921661ffff19909316929092171790558161143c61192e565b6001600160a01b0316827f44c6753a1a789ef93169cbfc6456408d5438d5406af5db10e342d351ce77f9b687878e8e8e8e8e6040516114819796959493929190612988565b60405180910390a4505050505050505050565b606061149f826118cf565b600082815260076020526040812080546114b890612874565b80601f01602080910402602001604051908101604052809291908181526020018280546114e490612874565b80156115315780601f1061150657610100808354040283529160200191611531565b820191906000526020600020905b81548152906001019060200180831161151457829003601f168201915b50505050509050600061154f60408051602081019091526000815290565b9050805160001415611562575092915050565b81511561159457808260405160200161157c9291906129d8565b60405160208183030381529060405292505050919050565b61159d84611db5565b949350505050565b600a546001600160a01b03166340c10f196115be61192e565b6040516001600160e01b031960e084901b1681526001600160a01b039091166004820152346024820152604401600060405180830381600087803b15801561160557600080fd5b505af1158015611619573d6000803e3d6000fd5b5050505034600b600082825461162f9190612a07565b9091555061163d905061192e565b6001600160a01b03167fe1fffcc4923d04b559f4d29a8bfc6cda04eb5b0d3c460751c2402c5c5cc9109c3460405161167791815260200190565b60405180910390a2565b611689611bb2565b600880546001600160a01b0319166001600160a01b03831617905550565b50565b6116b2611bb2565b6001600160a01b0381166117175760405162461bcd60e51b815260206004820152602660248201527f4f776e61626c653a206e6577206f776e657220697320746865207a65726f206160448201526564647265737360d01b6064820152608401610650565b6116a781611c2b565b611728611bb2565b600a80546001600160a01b0319166001600160a01b0392909216919091179055565b61175261192e565b6000828152600c60205260409020546001600160a01b039081169116146117b45760405162461bcd60e51b815260206004820152601660248201527513db9b1e481cd95b1b195c8818d85b8818d85b98d95b60521b6044820152606401610650565b6000818152600c602052604090206008015460ff161561180e5760405162461bcd60e51b815260206004820152601560248201527413d999995c881a5cc8185b1c9958591e481cdbdb19605a1b6044820152606401610650565b6000818152600c6020526040902060080154610100900460ff16156118755760405162461bcd60e51b815260206004820152601a60248201527f4f6666657220697320616c72656164792063616e63656c6c65640000000000006044820152606401610650565b6000818152600c6020526040902060088101805461ff001916610100179055600301546118a190611e28565b60405181907f6917c54e363c87122ded2db643033caa7634085108272a134387eb8e5ddee76290600090a250565b6000818152600360205260409020546001600160a01b03166116a75760405162461bcd60e51b8152602060048201526018602482015277115490cdcc8c4e881a5b9d985b1a59081d1bdad95b88125160421b6044820152606401610650565b60006014361080159061194b57506008546001600160a01b031633145b1561195d575060131936013560601c90565b503390565b600081815260056020526040902080546001600160a01b0319166001600160a01b038416908117909155819061199782610f5c565b6001600160a01b03167f8c5be1e5ebec7d5bd14f71427d1e84f3dd0314c0f7b2291e5b200ac8c7c3b92560405160405180910390a45050565b826001600160a01b03166119e382610f5c565b6001600160a01b031614611a095760405162461bcd60e51b815260040161065090612a1f565b6001600160a01b038216611a6b5760405162461bcd60e51b8152602060048201526024808201527f4552433732313a207472616e7366657220746f20746865207a65726f206164646044820152637265737360e01b6064820152608401610650565b826001600160a01b0316611a7e82610f5c565b6001600160a01b031614611aa45760405162461bcd60e51b815260040161065090612a1f565b600081815260056020908152604080832080546001600160a01b03199081169091556001600160a01b0387811680865260048552838620805460001901905590871680865283862080546001019055868652600390945282852080549092168417909155905184937fddf252ad1be2c89b69c2b068fc378daa952ba7f163c4a11628f55a4df523b3ef91a4505050565b600080611b4083610f5c565b9050806001600160a01b0316846001600160a01b03161480611b8757506001600160a01b0380821660009081526006602090815260408083209388168352929052205460ff165b8061159d5750836001600160a01b0316611ba0846105b4565b6001600160a01b031614949350505050565b611bba61192e565b6001600160a01b0316611bd56000546001600160a01b031690565b6001600160a01b0316146110545760405162461bcd60e51b815260206004820181905260248201527f4f776e61626c653a2063616c6c6572206973206e6f7420746865206f776e65726044820152606401610650565b600080546001600160a01b038381166001600160a01b0319831681178455604051919092169283917f8be0079c531659141344cd1fd0a4f28419497f9722a3daafe3b4186f6b6457e09190a35050565b816001600160a01b0316836001600160a01b03161415611cdd5760405162461bcd60e51b815260206004820152601960248201527f4552433732313a20617070726f766520746f2063616c6c6572000000000000006044820152606401610650565b6001600160a01b03838116600081815260066020908152604080832094871680845294825291829020805460ff191686151590811790915591519182527f17307eab39ab6107e8899845ad3d59bd9653f200f220920489ca2b5937696c31910160405180910390a3505050565b611d558484846119d0565b611d6184848484611e68565b6110b45760405162461bcd60e51b815260040161065090612a64565b6000611d8d600980546001019055565b6000611d9860095490565b9050611da48482611f7c565b611dae8184612107565b9392505050565b6060611dc0826118cf565b6000611dd760408051602081019091526000815290565b90506000815111611df75760405180602001604052806000815250611dae565b80611e01846121a1565b604051602001611e129291906129d8565b6040516020818303038152906040529392505050565b611e318161223e565b60008181526007602052604090208054611e4a90612874565b1590506116a75760008181526007602052604081206116a79161242f565b60006001600160a01b0384163b15611f7157836001600160a01b031663150b7a02611e9161192e565b8786866040518563ffffffff1660e01b8152600401611eb39493929190612ab6565b602060405180830381600087803b158015611ecd57600080fd5b505af1925050508015611efd575060408051601f3d908101601f19168201909252611efa91810190612af3565b60015b611f57573d808015611f2b576040519150601f19603f3d011682016040523d82523d6000602084013e611f30565b606091505b508051611f4f5760405162461bcd60e51b815260040161065090612a64565b805181602001fd5b6001600160e01b031916630a85bd0160e11b14905061159d565b506001949350505050565b6001600160a01b038216611fd25760405162461bcd60e51b815260206004820181905260248201527f4552433732313a206d696e7420746f20746865207a65726f20616464726573736044820152606401610650565b6000818152600360205260409020546001600160a01b0316156120375760405162461bcd60e51b815260206004820152601c60248201527f4552433732313a20746f6b656e20616c7265616479206d696e746564000000006044820152606401610650565b6000818152600360205260409020546001600160a01b03161561209c5760405162461bcd60e51b815260206004820152601c60248201527f4552433732313a20746f6b656e20616c7265616479206d696e746564000000006044820152606401610650565b6001600160a01b038216600081815260046020908152604080832080546001019055848352600390915280822080546001600160a01b0319168417905551839291907fddf252ad1be2c89b69c2b068fc378daa952ba7f163c4a11628f55a4df523b3ef908290a45050565b6000828152600360205260409020546001600160a01b03166121825760405162461bcd60e51b815260206004820152602e60248201527f45524337323155524953746f726167653a2055524920736574206f66206e6f6e60448201526d32bc34b9ba32b73a103a37b5b2b760911b6064820152608401610650565b60008281526007602090815260409091208251610703928401906123ab565b606060006121ae836122d3565b600101905060008167ffffffffffffffff8111156121ce576121ce612662565b6040519080825280601f01601f1916602001820160405280156121f8576020820181803683370190505b5090508181016020015b600019016f181899199a1a9b1b9c1cb0b131b232b360811b600a86061a8153600a850494508461223157612236565b612202565b509392505050565b600061224982610f5c565b905061225482610f5c565b600083815260056020908152604080832080546001600160a01b03199081169091556001600160a01b0385168085526004845282852080546000190190558785526003909352818420805490911690555192935084927fddf252ad1be2c89b69c2b068fc378daa952ba7f163c4a11628f55a4df523b3ef908390a45050565b60008072184f03e93ff9f4daa797ed6e38ed64bf6a1f0160401b83106123125772184f03e93ff9f4daa797ed6e38ed64bf6a1f0160401b830492506040015b6d04ee2d6d415b85acef8100000000831061233e576d04ee2d6d415b85acef8100000000830492506020015b662386f26fc10000831061235c57662386f26fc10000830492506010015b6305f5e1008310612374576305f5e100830492506008015b612710831061238857612710830492506004015b6064831061239a576064830492506002015b600a831061051c5760010192915050565b8280546123b790612874565b90600052602060002090601f0160209004810192826123d9576000855561241f565b82601f106123f257805160ff191683800117855561241f565b8280016001018555821561241f579182015b8281111561241f578251825591602001919060010190612404565b5061242b929150612465565b5090565b50805461243b90612874565b6000825580601f1061244b575050565b601f0160209004906000526020600020908101906116a791905b5b8082111561242b5760008155600101612466565b6001600160e01b0319811681146116a757600080fd5b6000602082840312156124a257600080fd5b8135611dae8161247a565b60005b838110156124c85781810151838201526020016124b0565b838111156110b45750506000910152565b600081518084526124f18160208601602086016124ad565b601f01601f19169290920160200192915050565b602081526000611dae60208301846124d9565b60006020828403121561252a57600080fd5b5035919050565b80356001600160a01b038116811461254857600080fd5b919050565b6000806040838503121561256057600080fd5b61256983612531565b946020939093013593505050565b600080600080600060a0868803121561258f57600080fd5b8535945060208601359350604086013560ff811681146125ae57600080fd5b94979396509394606081013594506080013592915050565b6000806000606084860312156125db57600080fd5b6125e484612531565b92506125f260208501612531565b9150604084013590509250925092565b60006020828403121561261457600080fd5b611dae82612531565b80151581146116a757600080fd5b6000806040838503121561263e57600080fd5b61264783612531565b915060208301356126578161261d565b809150509250929050565b634e487b7160e01b600052604160045260246000fd5b6000806000806080858703121561268e57600080fd5b61269785612531565b93506126a560208601612531565b925060408501359150606085013567ffffffffffffffff808211156126c957600080fd5b818701915087601f8301126126dd57600080fd5b8135818111156126ef576126ef612662565b604051601f8201601f19908116603f0116810190838211818310171561271757612717612662565b816040528281528a602084870101111561273057600080fd5b82602086016020830137600060208483010152809550505050505092959194509250565b60008083601f84011261276657600080fd5b50813567ffffffffffffffff81111561277e57600080fd5b60208301915083602082850101111561279657600080fd5b9250929050565b60008060008060008060006080888a0312156127b857600080fd5b87359650602088013567ffffffffffffffff808211156127d757600080fd5b6127e38b838c01612754565b909850965060408a01359150808211156127fc57600080fd5b6128088b838c01612754565b909650945060608a013591508082111561282157600080fd5b5061282e8a828b01612754565b989b979a50959850939692959293505050565b6000806040838503121561285457600080fd5b61285d83612531565b915061286b60208401612531565b90509250929050565b600181811c9082168061288857607f821691505b602082108114156128a957634e487b7160e01b600052602260045260246000fd5b50919050565b6000602082840312156128c157600080fd5b5051919050565b6000602082840312156128da57600080fd5b8151611dae8161261d565b6020808252602d908201527f4552433732313a2063616c6c6572206973206e6f7420746f6b656e206f776e6560408201526c1c881bdc88185c1c1c9bdd9959609a1b606082015260800190565b634e487b7160e01b600052601160045260246000fd5b60008282101561295a5761295a612932565b500390565b81835281816020850137506000828201602090810191909152601f909101601f19169091010190565b60808152600061299c60808301898b61295f565b87602084015282810360408401526129b581878961295f565b905082810360608401526129ca81858761295f565b9a9950505050505050505050565b600083516129ea8184602088016124ad565b8351908301906129fe8183602088016124ad565b01949350505050565b60008219821115612a1a57612a1a612932565b500190565b60208082526025908201527f4552433732313a207472616e736665722066726f6d20696e636f72726563742060408201526437bbb732b960d91b606082015260800190565b60208082526032908201527f4552433732313a207472616e7366657220746f206e6f6e20455243373231526560408201527131b2b4bb32b91034b6b83632b6b2b73a32b960711b606082015260800190565b6001600160a01b0385811682528416602082015260408101839052608060608201819052600090612ae9908301846124d9565b9695505050505050565b600060208284031215612b0557600080fd5b8151611dae8161247a56fea2646970667358221220ddf3a5a876987ef16bb07bad2d6466da09a373050c7ae06333b1834520d873cd64736f6c63430008090033",
    "linkReferences": {},
    "deployedLinkReferences": {}
}