{
  "_format": "hh-sol-artifact-1",
  "contractName": "Marketplace",
  "sourceName": "contracts/Marketplace.sol",
  "abi": [
    {
      "inputs": [
        {
          "internalType": "address",
          "name": "_tokenAddress",
          "type": "address"
        }
      ],
      "stateMutability": "nonpayable",
      "type": "constructor"
    },
    {
      "anonymous": false,
      "inputs": [
        {
          "indexed": true,
          "internalType": "address",
          "name": "owner",
          "type": "address"
        },
        {
          "indexed": true,
          "internalType": "address",
          "name": "approved",
          "type": "address"
        },
        {
          "indexed": true,
          "internalType": "uint256",
          "name": "tokenId",
          "type": "uint256"
        }
      ],
      "name": "Approval",
      "type": "event"
    },
    {
      "anonymous": false,
      "inputs": [
        {
          "indexed": true,
          "internalType": "address",
          "name": "owner",
          "type": "address"
        },
        {
          "indexed": true,
          "internalType": "address",
          "name": "operator",
          "type": "address"
        },
        {
          "indexed": false,
          "internalType": "bool",
          "name": "approved",
          "type": "bool"
        }
      ],
      "name": "ApprovalForAll",
      "type": "event"
    },
    {
      "anonymous": false,
      "inputs": [
        {
          "indexed": true,
          "internalType": "bytes32",
          "name": "offerId",
          "type": "bytes32"
        },
        {
          "indexed": true,
          "internalType": "address",
          "name": "buyer",
          "type": "address"
        }
      ],
      "name": "BuyOffer",
      "type": "event"
    },
    {
      "anonymous": false,
      "inputs": [
        {
          "indexed": true,
          "internalType": "bytes32",
          "name": "offerId",
          "type": "bytes32"
        }
      ],
      "name": "CancelOffer",
      "type": "event"
    },
    {
      "anonymous": false,
      "inputs": [
        {
          "indexed": true,
          "internalType": "bytes32",
          "name": "offerId",
          "type": "bytes32"
        },
        {
          "indexed": true,
          "internalType": "address",
          "name": "seller",
          "type": "address"
        },
        {
          "indexed": true,
          "internalType": "uint256",
          "name": "tokenId",
          "type": "uint256"
        },
        {
          "indexed": false,
          "internalType": "string",
          "name": "tokenURI",
          "type": "string"
        },
        {
          "indexed": false,
          "internalType": "uint256",
          "name": "price",
          "type": "uint256"
        },
        {
          "indexed": false,
          "internalType": "string",
          "name": "itemName",
          "type": "string"
        },
        {
          "indexed": false,
          "internalType": "string",
          "name": "itemImage",
          "type": "string"
        }
      ],
      "name": "CreateOffer",
      "type": "event"
    },
    {
      "anonymous": false,
      "inputs": [
        {
          "indexed": true,
          "internalType": "address",
          "name": "sender",
          "type": "address"
        },
        {
          "indexed": false,
          "internalType": "uint256",
          "name": "amount",
          "type": "uint256"
        }
      ],
      "name": "Deposit",
      "type": "event"
    },
    {
      "anonymous": false,
      "inputs": [
        {
          "indexed": true,
          "internalType": "address",
          "name": "previousOwner",
          "type": "address"
        },
        {
          "indexed": true,
          "internalType": "address",
          "name": "newOwner",
          "type": "address"
        }
      ],
      "name": "OwnershipTransferred",
      "type": "event"
    },
    {
      "anonymous": false,
      "inputs": [
        {
          "indexed": true,
          "internalType": "address",
          "name": "from",
          "type": "address"
        },
        {
          "indexed": true,
          "internalType": "address",
          "name": "to",
          "type": "address"
        },
        {
          "indexed": true,
          "internalType": "uint256",
          "name": "tokenId",
          "type": "uint256"
        }
      ],
      "name": "Transfer",
      "type": "event"
    },
    {
      "anonymous": false,
      "inputs": [
        {
          "indexed": true,
          "internalType": "address",
          "name": "sender",
          "type": "address"
        },
        {
          "indexed": false,
          "internalType": "uint256",
          "name": "amount",
          "type": "uint256"
        }
      ],
      "name": "Withdraw",
      "type": "event"
    },
    {
      "inputs": [
        {
          "internalType": "address",
          "name": "to",
          "type": "address"
        },
        {
          "internalType": "uint256",
          "name": "tokenId",
          "type": "uint256"
        }
      ],
      "name": "approve",
      "outputs": [],
      "stateMutability": "nonpayable",
      "type": "function"
    },
    {
      "inputs": [
        {
          "internalType": "address",
          "name": "owner",
          "type": "address"
        }
      ],
      "name": "balanceOf",
      "outputs": [
        {
          "internalType": "uint256",
          "name": "",
          "type": "uint256"
        }
      ],
      "stateMutability": "view",
      "type": "function"
    },
    {
      "inputs": [
        {
          "internalType": "bytes32",
          "name": "offerId",
          "type": "bytes32"
        }
      ],
      "name": "buyOffer",
      "outputs": [],
      "stateMutability": "nonpayable",
      "type": "function"
    },
    {
      "inputs": [
        {
          "internalType": "bytes32",
          "name": "offerId",
          "type": "bytes32"
        }
      ],
      "name": "cancelOffer",
      "outputs": [],
      "stateMutability": "nonpayable",
      "type": "function"
    },
    {
      "inputs": [
        {
          "internalType": "uint256",
          "name": "price",
          "type": "uint256"
        },
        {
          "internalType": "string",
          "name": "itemName",
          "type": "string"
        },
        {
          "internalType": "string",
          "name": "itemImage",
          "type": "string"
        },
        {
          "internalType": "string",
          "name": "tokenURI",
          "type": "string"
        }
      ],
      "name": "createOffer",
      "outputs": [],
      "stateMutability": "nonpayable",
      "type": "function"
    },
    {
      "inputs": [],
      "name": "deposit",
      "outputs": [],
      "stateMutability": "payable",
      "type": "function"
    },
    {
      "inputs": [
        {
          "internalType": "uint256",
          "name": "tokenId",
          "type": "uint256"
        }
      ],
      "name": "getApproved",
      "outputs": [
        {
          "internalType": "address",
          "name": "",
          "type": "address"
        }
      ],
      "stateMutability": "view",
      "type": "function"
    },
    {
      "inputs": [
        {
          "internalType": "address",
          "name": "owner",
          "type": "address"
        },
        {
          "internalType": "address",
          "name": "operator",
          "type": "address"
        }
      ],
      "name": "isApprovedForAll",
      "outputs": [
        {
          "internalType": "bool",
          "name": "",
          "type": "bool"
        }
      ],
      "stateMutability": "view",
      "type": "function"
    },
    {
      "inputs": [],
      "name": "name",
      "outputs": [
        {
          "internalType": "string",
          "name": "",
          "type": "string"
        }
      ],
      "stateMutability": "view",
      "type": "function"
    },
    {
      "inputs": [],
      "name": "owner",
      "outputs": [
        {
          "internalType": "address",
          "name": "",
          "type": "address"
        }
      ],
      "stateMutability": "view",
      "type": "function"
    },
    {
      "inputs": [
        {
          "internalType": "uint256",
          "name": "tokenId",
          "type": "uint256"
        }
      ],
      "name": "ownerOf",
      "outputs": [
        {
          "internalType": "address",
          "name": "",
          "type": "address"
        }
      ],
      "stateMutability": "view",
      "type": "function"
    },
    {
      "inputs": [],
      "name": "renounceOwnership",
      "outputs": [],
      "stateMutability": "nonpayable",
      "type": "function"
    },
    {
      "inputs": [
        {
          "internalType": "address",
          "name": "from",
          "type": "address"
        },
        {
          "internalType": "address",
          "name": "to",
          "type": "address"
        },
        {
          "internalType": "uint256",
          "name": "tokenId",
          "type": "uint256"
        }
      ],
      "name": "safeTransferFrom",
      "outputs": [],
      "stateMutability": "nonpayable",
      "type": "function"
    },
    {
      "inputs": [
        {
          "internalType": "address",
          "name": "from",
          "type": "address"
        },
        {
          "internalType": "address",
          "name": "to",
          "type": "address"
        },
        {
          "internalType": "uint256",
          "name": "tokenId",
          "type": "uint256"
        },
        {
          "internalType": "bytes",
          "name": "data",
          "type": "bytes"
        }
      ],
      "name": "safeTransferFrom",
      "outputs": [],
      "stateMutability": "nonpayable",
      "type": "function"
    },
    {
      "inputs": [
        {
          "internalType": "address",
          "name": "operator",
          "type": "address"
        },
        {
          "internalType": "bool",
          "name": "approved",
          "type": "bool"
        }
      ],
      "name": "setApprovalForAll",
      "outputs": [],
      "stateMutability": "nonpayable",
      "type": "function"
    },
    {
      "inputs": [
        {
          "internalType": "address",
          "name": "_tokenAddress",
          "type": "address"
        }
      ],
      "name": "setS2LContract",
      "outputs": [],
      "stateMutability": "nonpayable",
      "type": "function"
    },
    {
      "inputs": [
        {
          "internalType": "bytes4",
          "name": "interfaceId",
          "type": "bytes4"
        }
      ],
      "name": "supportsInterface",
      "outputs": [
        {
          "internalType": "bool",
          "name": "",
          "type": "bool"
        }
      ],
      "stateMutability": "view",
      "type": "function"
    },
    {
      "inputs": [],
      "name": "symbol",
      "outputs": [
        {
          "internalType": "string",
          "name": "",
          "type": "string"
        }
      ],
      "stateMutability": "view",
      "type": "function"
    },
    {
      "inputs": [
        {
          "internalType": "uint256",
          "name": "tokenId",
          "type": "uint256"
        }
      ],
      "name": "tokenURI",
      "outputs": [
        {
          "internalType": "string",
          "name": "",
          "type": "string"
        }
      ],
      "stateMutability": "view",
      "type": "function"
    },
    {
      "inputs": [
        {
          "internalType": "address",
          "name": "from",
          "type": "address"
        },
        {
          "internalType": "address",
          "name": "to",
          "type": "address"
        },
        {
          "internalType": "uint256",
          "name": "tokenId",
          "type": "uint256"
        }
      ],
      "name": "transferFrom",
      "outputs": [],
      "stateMutability": "nonpayable",
      "type": "function"
    },
    {
      "inputs": [
        {
          "internalType": "address",
          "name": "newOwner",
          "type": "address"
        }
      ],
      "name": "transferOwnership",
      "outputs": [],
      "stateMutability": "nonpayable",
      "type": "function"
    },
    {
      "inputs": [
        {
          "internalType": "uint256",
          "name": "amount",
          "type": "uint256"
        }
      ],
      "name": "withdraw",
      "outputs": [],
      "stateMutability": "nonpayable",
      "type": "function"
    }
  ],
  "bytecode": "0x60806040526000600a553480156200001657600080fd5b5060405162002735380380620027358339810160408190526200003991620001e0565b6040518060400160405280600981526020016813d999995c8813919560ba1b8152506040518060400160405280600381526020016213919560ea1b815250620000916200008b620000e660201b60201c565b620000ea565b8151620000a69060019060208501906200013a565b508051620000bc9060029060208401906200013a565b5050600980546001600160a01b0319166001600160a01b039390931692909217909155506200024f565b3390565b600080546001600160a01b038381166001600160a01b0319831681178455604051919092169283917f8be0079c531659141344cd1fd0a4f28419497f9722a3daafe3b4186f6b6457e09190a35050565b828054620001489062000212565b90600052602060002090601f0160209004810192826200016c5760008555620001b7565b82601f106200018757805160ff1916838001178555620001b7565b82800160010185558215620001b7579182015b82811115620001b75782518255916020019190600101906200019a565b50620001c5929150620001c9565b5090565b5b80821115620001c55760008155600101620001ca565b600060208284031215620001f357600080fd5b81516001600160a01b03811681146200020b57600080fd5b9392505050565b600181811c908216806200022757607f821691505b602082108114156200024957634e487b7160e01b600052602260045260246000fd5b50919050565b6124d6806200025f6000396000f3fe6080604052600436106101355760003560e01c806395d89b41116100ab578063d0e30db01161006f578063d0e30db014610361578063e985e9c514610369578063ee95cd7d146103b2578063f2fde38b146103d2578063f58614c8146103f2578063f952279e1461041257600080fd5b806395d89b41146102cc578063a22cb465146102e1578063b88d4fde14610301578063c74d949814610321578063c87b56dd1461034157600080fd5b80632e1a7d4d116100fd5780632e1a7d4d1461020b57806342842e0e1461022b5780636352211e1461024b57806370a082311461026b578063715018a6146102995780638da5cb5b146102ae57600080fd5b806301ffc9a71461013a57806306fdde031461016f578063081812fc14610191578063095ea7b3146101c957806323b872dd146101eb575b600080fd5b34801561014657600080fd5b5061015a610155366004611e6f565b610432565b60405190151581526020015b60405180910390f35b34801561017b57600080fd5b50610184610484565b6040516101669190611ee4565b34801561019d57600080fd5b506101b16101ac366004611ef7565b610516565b6040516001600160a01b039091168152602001610166565b3480156101d557600080fd5b506101e96101e4366004611f2c565b61053d565b005b3480156101f757600080fd5b506101e9610206366004611f56565b610658565b34801561021757600080fd5b506101e9610226366004611ef7565b610689565b34801561023757600080fd5b506101e9610246366004611f56565b6108b9565b34801561025757600080fd5b506101b1610266366004611ef7565b6108d4565b34801561027757600080fd5b5061028b610286366004611f92565b610934565b604051908152602001610166565b3480156102a557600080fd5b506101e96109ba565b3480156102ba57600080fd5b506000546001600160a01b03166101b1565b3480156102d857600080fd5b506101846109ce565b3480156102ed57600080fd5b506101e96102fc366004611fbb565b6109dd565b34801561030d57600080fd5b506101e961031c366004612008565b6109ec565b34801561032d57600080fd5b506101e961033c36600461212d565b610a24565b34801561034d57600080fd5b5061018461035c366004611ef7565b610d71565b6101e9610e82565b34801561037557600080fd5b5061015a6103843660046121d1565b6001600160a01b03918216600090815260066020908152604080832093909416825291909152205460ff1690565b3480156103be57600080fd5b506101e96103cd366004611ef7565b610f33565b3480156103de57600080fd5b506101e96103ed366004611f92565b6110ee565b3480156103fe57600080fd5b506101e961040d366004611f92565b611164565b34801561041e57600080fd5b506101e961042d366004611ef7565b61118e565b60006001600160e01b031982166380ac58cd60e01b148061046357506001600160e01b03198216635b5e139f60e01b145b8061047e57506301ffc9a760e01b6001600160e01b03198316145b92915050565b60606001805461049390612204565b80601f01602080910402602001604051908101604052809291908181526020018280546104bf90612204565b801561050c5780601f106104e15761010080835404028352916020019161050c565b820191906000526020600020905b8154815290600101906020018083116104ef57829003601f168201915b5050505050905090565b600061052182611308565b506000908152600560205260409020546001600160a01b031690565b6000610548826108d4565b9050806001600160a01b0316836001600160a01b031614156105bb5760405162461bcd60e51b815260206004820152602160248201527f4552433732313a20617070726f76616c20746f2063757272656e74206f776e656044820152603960f91b60648201526084015b60405180910390fd5b336001600160a01b03821614806105d757506105d78133610384565b6106495760405162461bcd60e51b815260206004820152603d60248201527f4552433732313a20617070726f76652063616c6c6572206973206e6f7420746f60448201527f6b656e206f776e6572206f7220617070726f76656420666f7220616c6c00000060648201526084016105b2565b6106538383611367565b505050565b61066233826113d5565b61067e5760405162461bcd60e51b81526004016105b29061223f565b610653838383611453565b6009546040516370a0823160e01b81523360048201526000916001600160a01b0316906370a082319060240160206040518083038186803b1580156106cd57600080fd5b505afa1580156106e1573d6000803e3d6000fd5b505050506040513d601f19601f82011682018060405250810190610705919061228c565b9050808211156107575760405162461bcd60e51b815260206004820152601a60248201527f4e6f7420656e6f75676820746f2062652077697468647261776e00000000000060448201526064016105b2565b600a548211156107a95760405162461bcd60e51b815260206004820152601e60248201527f57697468647261772069732063757272656e746c792064697361626c6564000060448201526064016105b2565b604051600090339084156108fc0290859084818181858888f193505050509050806108045760405162461bcd60e51b815260206004820152600b60248201526a1cd95b990819985a5b195960aa1b60448201526064016105b2565b600954604051632770a7eb60e21b8152336004820152602481018590526001600160a01b0390911690639dc29fac90604401600060405180830381600087803b15801561085057600080fd5b505af1158015610864573d6000803e3d6000fd5b50506040518581523392507f884edad9ce6fa2440d8a54cc123490eb96d2768479d49ff9c7366125a9424364915060200160405180910390a282600a60008282546108af91906122bb565b9091555050505050565b610653838383604051806020016040528060008152506109ec565b6000818152600360205260408120546001600160a01b03168061047e5760405162461bcd60e51b8152602060048201526018602482015277115490cdcc8c4e881a5b9d985b1a59081d1bdad95b88125160421b60448201526064016105b2565b60006001600160a01b03821661099e5760405162461bcd60e51b815260206004820152602960248201527f4552433732313a2061646472657373207a65726f206973206e6f7420612076616044820152683634b21037bbb732b960b91b60648201526084016105b2565b506001600160a01b031660009081526004602052604090205490565b6109c26115b7565b6109cc6000611611565b565b60606002805461049390612204565b6109e8338383611661565b5050565b6109f633836113d5565b610a125760405162461bcd60e51b81526004016105b29061223f565b610a1e84848484611730565b50505050565b60008711610a745760405162461bcd60e51b815260206004820152601c60248201527f5072696365206d7573742062652067726561746572207468616e20300000000060448201526064016105b2565b84610ac15760405162461bcd60e51b815260206004820152601b60248201527f4974656d206e616d65206d757374206e6f7420626520656d707479000000000060448201526064016105b2565b80610b0e5760405162461bcd60e51b815260206004820152601b60248201527f546f6b656e20555249206d757374206e6f7420626520656d707479000000000060448201526064016105b2565b6000610b503384848080601f01602080910402602001604051908101604052809392919081815260200183838082843760009201919091525061176392505050565b6040516bffffffffffffffffffffffff193360601b1660208201526034810182905290915060009060540160408051601f19818403018152828252805160209182012061012084018352338452600084830152308484015260608401869052608084018d90528251601f8c018390048302810183019093528a8352935060a0830191908b908b9081908401838280828437600092019190915250505090825250604080516020601f880181900481028201810190925286815291810191908790879081908401838280828437600092018290525093855250505060208083018290526040928301829052848252600b815290829020835181546001600160a01b03199081166001600160a01b0392831617835585840151600184018054831691841691909117905593850151600283018054909516911617909255606083015160038301556080830151600483015560a08301518051610cb69260058501920190611d8a565b5060c08201518051610cd2916006840191602090910190611d8a565b5060e08201518160070160006101000a81548160ff0219169083151502179055506101008201518160070160016101000a81548160ff02191690831515021790555090505081336001600160a01b0316827f44c6753a1a789ef93169cbfc6456408d5438d5406af5db10e342d351ce77f9b687878e8e8e8e8e604051610d5e97969594939291906122fb565b60405180910390a4505050505050505050565b6060610d7c82611308565b60008281526007602052604081208054610d9590612204565b80601f0160208091040260200160405190810160405280929190818152602001828054610dc190612204565b8015610e0e5780601f10610de357610100808354040283529160200191610e0e565b820191906000526020600020905b815481529060010190602001808311610df157829003601f168201915b505050505090506000610e2c60408051602081019091526000815290565b9050805160001415610e3f575092915050565b815115610e71578082604051602001610e5992919061234b565b60405160208183030381529060405292505050919050565b610e7a8461179b565b949350505050565b6009546040516340c10f1960e01b81523360048201523460248201526001600160a01b03909116906340c10f1990604401600060405180830381600087803b158015610ecd57600080fd5b505af1158015610ee1573d6000803e3d6000fd5b5050505034600a6000828254610ef7919061237a565b909155505060405134815233907fe1fffcc4923d04b559f4d29a8bfc6cda04eb5b0d3c460751c2402c5c5cc9109c9060200160405180910390a2565b6000818152600b602052604090206007015460ff1615610f8d5760405162461bcd60e51b815260206004820152601560248201527413d999995c881a5cc8185b1c9958591e481cdbdb19605a1b60448201526064016105b2565b6000818152600b6020526040902060070154610100900460ff1615610ff45760405162461bcd60e51b815260206004820152601a60248201527f4f6666657220697320616c72656164792063616e63656c6c656400000000000060448201526064016105b2565b6009546000828152600b602052604090819020805460049182015492516323b872dd60e01b815233928101929092526001600160a01b03908116602483015260448201929092529116906323b872dd90606401602060405180830381600087803b15801561106157600080fd5b505af1158015611075573d6000803e3d6000fd5b505050506040513d601f19601f820116820180604052508101906110999190612392565b506000818152600b6020526040902060078101805460ff19166001908117909155810180546001600160a01b0319163390811790915581546003909201546110eb926001600160a01b03169190611453565b50565b6110f66115b7565b6001600160a01b03811661115b5760405162461bcd60e51b815260206004820152602660248201527f4f776e61626c653a206e6577206f776e657220697320746865207a65726f206160448201526564647265737360d01b60648201526084016105b2565b6110eb81611611565b61116c6115b7565b600980546001600160a01b0319166001600160a01b0392909216919091179055565b6000818152600b60205260409020546001600160a01b031633146111ed5760405162461bcd60e51b815260206004820152601660248201527513db9b1e481cd95b1b195c8818d85b8818d85b98d95b60521b60448201526064016105b2565b6000818152600b602052604090206007015460ff16156112475760405162461bcd60e51b815260206004820152601560248201527413d999995c881a5cc8185b1c9958591e481cdbdb19605a1b60448201526064016105b2565b6000818152600b6020526040902060070154610100900460ff16156112ae5760405162461bcd60e51b815260206004820152601a60248201527f4f6666657220697320616c72656164792063616e63656c6c656400000000000060448201526064016105b2565b6000818152600b6020526040902060078101805461ff001916610100179055600301546112da9061180e565b60405181907f6917c54e363c87122ded2db643033caa7634085108272a134387eb8e5ddee76290600090a250565b6000818152600360205260409020546001600160a01b03166110eb5760405162461bcd60e51b8152602060048201526018602482015277115490cdcc8c4e881a5b9d985b1a59081d1bdad95b88125160421b60448201526064016105b2565b600081815260056020526040902080546001600160a01b0319166001600160a01b038416908117909155819061139c826108d4565b6001600160a01b03167f8c5be1e5ebec7d5bd14f71427d1e84f3dd0314c0f7b2291e5b200ac8c7c3b92560405160405180910390a45050565b6000806113e1836108d4565b9050806001600160a01b0316846001600160a01b0316148061142857506001600160a01b0380821660009081526006602090815260408083209388168352929052205460ff165b80610e7a5750836001600160a01b031661144184610516565b6001600160a01b031614949350505050565b826001600160a01b0316611466826108d4565b6001600160a01b03161461148c5760405162461bcd60e51b81526004016105b2906123af565b6001600160a01b0382166114ee5760405162461bcd60e51b8152602060048201526024808201527f4552433732313a207472616e7366657220746f20746865207a65726f206164646044820152637265737360e01b60648201526084016105b2565b826001600160a01b0316611501826108d4565b6001600160a01b0316146115275760405162461bcd60e51b81526004016105b2906123af565b600081815260056020908152604080832080546001600160a01b03199081169091556001600160a01b0387811680865260048552838620805460001901905590871680865283862080546001019055868652600390945282852080549092168417909155905184937fddf252ad1be2c89b69c2b068fc378daa952ba7f163c4a11628f55a4df523b3ef91a4505050565b6000546001600160a01b031633146109cc5760405162461bcd60e51b815260206004820181905260248201527f4f776e61626c653a2063616c6c6572206973206e6f7420746865206f776e657260448201526064016105b2565b600080546001600160a01b038381166001600160a01b0319831681178455604051919092169283917f8be0079c531659141344cd1fd0a4f28419497f9722a3daafe3b4186f6b6457e09190a35050565b816001600160a01b0316836001600160a01b031614156116c35760405162461bcd60e51b815260206004820152601960248201527f4552433732313a20617070726f766520746f2063616c6c65720000000000000060448201526064016105b2565b6001600160a01b03838116600081815260066020908152604080832094871680845294825291829020805460ff191686151590811790915591519182527f17307eab39ab6107e8899845ad3d59bd9653f200f220920489ca2b5937696c31910160405180910390a3505050565b61173b848484611453565b6117478484848461184e565b610a1e5760405162461bcd60e51b81526004016105b2906123f4565b6000611773600880546001019055565b600061177e60085490565b905061178a848261195b565b6117948184611ae6565b9392505050565b60606117a682611308565b60006117bd60408051602081019091526000815290565b905060008151116117dd5760405180602001604052806000815250611794565b806117e784611b80565b6040516020016117f892919061234b565b6040516020818303038152906040529392505050565b61181781611c1d565b6000818152600760205260409020805461183090612204565b1590506110eb5760008181526007602052604081206110eb91611e0e565b60006001600160a01b0384163b1561195057604051630a85bd0160e11b81526001600160a01b0385169063150b7a0290611892903390899088908890600401612446565b602060405180830381600087803b1580156118ac57600080fd5b505af19250505080156118dc575060408051601f3d908101601f191682019092526118d991810190612483565b60015b611936573d80801561190a576040519150601f19603f3d011682016040523d82523d6000602084013e61190f565b606091505b50805161192e5760405162461bcd60e51b81526004016105b2906123f4565b805181602001fd5b6001600160e01b031916630a85bd0160e11b149050610e7a565b506001949350505050565b6001600160a01b0382166119b15760405162461bcd60e51b815260206004820181905260248201527f4552433732313a206d696e7420746f20746865207a65726f206164647265737360448201526064016105b2565b6000818152600360205260409020546001600160a01b031615611a165760405162461bcd60e51b815260206004820152601c60248201527f4552433732313a20746f6b656e20616c7265616479206d696e7465640000000060448201526064016105b2565b6000818152600360205260409020546001600160a01b031615611a7b5760405162461bcd60e51b815260206004820152601c60248201527f4552433732313a20746f6b656e20616c7265616479206d696e7465640000000060448201526064016105b2565b6001600160a01b038216600081815260046020908152604080832080546001019055848352600390915280822080546001600160a01b0319168417905551839291907fddf252ad1be2c89b69c2b068fc378daa952ba7f163c4a11628f55a4df523b3ef908290a45050565b6000828152600360205260409020546001600160a01b0316611b615760405162461bcd60e51b815260206004820152602e60248201527f45524337323155524953746f726167653a2055524920736574206f66206e6f6e60448201526d32bc34b9ba32b73a103a37b5b2b760911b60648201526084016105b2565b6000828152600760209081526040909120825161065392840190611d8a565b60606000611b8d83611cb2565b600101905060008167ffffffffffffffff811115611bad57611bad611ff2565b6040519080825280601f01601f191660200182016040528015611bd7576020820181803683370190505b5090508181016020015b600019016f181899199a1a9b1b9c1cb0b131b232b360811b600a86061a8153600a8504945084611c1057611c15565b611be1565b509392505050565b6000611c28826108d4565b9050611c33826108d4565b600083815260056020908152604080832080546001600160a01b03199081169091556001600160a01b0385168085526004845282852080546000190190558785526003909352818420805490911690555192935084927fddf252ad1be2c89b69c2b068fc378daa952ba7f163c4a11628f55a4df523b3ef908390a45050565b60008072184f03e93ff9f4daa797ed6e38ed64bf6a1f0160401b8310611cf15772184f03e93ff9f4daa797ed6e38ed64bf6a1f0160401b830492506040015b6d04ee2d6d415b85acef81000000008310611d1d576d04ee2d6d415b85acef8100000000830492506020015b662386f26fc100008310611d3b57662386f26fc10000830492506010015b6305f5e1008310611d53576305f5e100830492506008015b6127108310611d6757612710830492506004015b60648310611d79576064830492506002015b600a831061047e5760010192915050565b828054611d9690612204565b90600052602060002090601f016020900481019282611db85760008555611dfe565b82601f10611dd157805160ff1916838001178555611dfe565b82800160010185558215611dfe579182015b82811115611dfe578251825591602001919060010190611de3565b50611e0a929150611e44565b5090565b508054611e1a90612204565b6000825580601f10611e2a575050565b601f0160209004906000526020600020908101906110eb91905b5b80821115611e0a5760008155600101611e45565b6001600160e01b0319811681146110eb57600080fd5b600060208284031215611e8157600080fd5b813561179481611e59565b60005b83811015611ea7578181015183820152602001611e8f565b83811115610a1e5750506000910152565b60008151808452611ed0816020860160208601611e8c565b601f01601f19169290920160200192915050565b6020815260006117946020830184611eb8565b600060208284031215611f0957600080fd5b5035919050565b80356001600160a01b0381168114611f2757600080fd5b919050565b60008060408385031215611f3f57600080fd5b611f4883611f10565b946020939093013593505050565b600080600060608486031215611f6b57600080fd5b611f7484611f10565b9250611f8260208501611f10565b9150604084013590509250925092565b600060208284031215611fa457600080fd5b61179482611f10565b80151581146110eb57600080fd5b60008060408385031215611fce57600080fd5b611fd783611f10565b91506020830135611fe781611fad565b809150509250929050565b634e487b7160e01b600052604160045260246000fd5b6000806000806080858703121561201e57600080fd5b61202785611f10565b935061203560208601611f10565b925060408501359150606085013567ffffffffffffffff8082111561205957600080fd5b818701915087601f83011261206d57600080fd5b81358181111561207f5761207f611ff2565b604051601f8201601f19908116603f011681019083821181831017156120a7576120a7611ff2565b816040528281528a60208487010111156120c057600080fd5b82602086016020830137600060208483010152809550505050505092959194509250565b60008083601f8401126120f657600080fd5b50813567ffffffffffffffff81111561210e57600080fd5b60208301915083602082850101111561212657600080fd5b9250929050565b60008060008060008060006080888a03121561214857600080fd5b87359650602088013567ffffffffffffffff8082111561216757600080fd5b6121738b838c016120e4565b909850965060408a013591508082111561218c57600080fd5b6121988b838c016120e4565b909650945060608a01359150808211156121b157600080fd5b506121be8a828b016120e4565b989b979a50959850939692959293505050565b600080604083850312156121e457600080fd5b6121ed83611f10565b91506121fb60208401611f10565b90509250929050565b600181811c9082168061221857607f821691505b6020821081141561223957634e487b7160e01b600052602260045260246000fd5b50919050565b6020808252602d908201527f4552433732313a2063616c6c6572206973206e6f7420746f6b656e206f776e6560408201526c1c881bdc88185c1c1c9bdd9959609a1b606082015260800190565b60006020828403121561229e57600080fd5b5051919050565b634e487b7160e01b600052601160045260246000fd5b6000828210156122cd576122cd6122a5565b500390565b81835281816020850137506000828201602090810191909152601f909101601f19169091010190565b60808152600061230f60808301898b6122d2565b87602084015282810360408401526123288187896122d2565b9050828103606084015261233d8185876122d2565b9a9950505050505050505050565b6000835161235d818460208801611e8c565b835190830190612371818360208801611e8c565b01949350505050565b6000821982111561238d5761238d6122a5565b500190565b6000602082840312156123a457600080fd5b815161179481611fad565b60208082526025908201527f4552433732313a207472616e736665722066726f6d20696e636f72726563742060408201526437bbb732b960d91b606082015260800190565b60208082526032908201527f4552433732313a207472616e7366657220746f206e6f6e20455243373231526560408201527131b2b4bb32b91034b6b83632b6b2b73a32b960711b606082015260800190565b6001600160a01b038581168252841660208201526040810183905260806060820181905260009061247990830184611eb8565b9695505050505050565b60006020828403121561249557600080fd5b815161179481611e5956fea26469706673582212203bd0331ae2b1179931d73bd9b0ff8462191d170aaa4c90fbf42d273dd42bed8064736f6c63430008090033",
  "linkReferences": {},
  "deployedLinkReferences": {}
}