{
  "_format": "hh-sol-artifact-1",
  "contractName": "S2LToken",
  "sourceName": "contracts/S2LToken.sol",
  "abi": [
    {
      "inputs": [],
      "stateMutability": "nonpayable",
      "type": "constructor"
    },
    {
      "anonymous": false,
      "inputs": [
        {
          "indexed": true,
          "internalType": "address",
          "name": "owner",
          "type": "address"
        },
        {
          "indexed": true,
          "internalType": "address",
          "name": "spender",
          "type": "address"
        },
        {
          "indexed": false,
          "internalType": "uint256",
          "name": "value",
          "type": "uint256"
        }
      ],
      "name": "Approval",
      "type": "event"
    },
    {
      "anonymous": false,
      "inputs": [
        {
          "indexed": true,
          "internalType": "address",
          "name": "previousOwner",
          "type": "address"
        },
        {
          "indexed": true,
          "internalType": "address",
          "name": "newOwner",
          "type": "address"
        }
      ],
      "name": "OwnershipTransferred",
      "type": "event"
    },
    {
      "anonymous": false,
      "inputs": [
        {
          "indexed": true,
          "internalType": "address",
          "name": "from",
          "type": "address"
        },
        {
          "indexed": true,
          "internalType": "address",
          "name": "to",
          "type": "address"
        },
        {
          "indexed": false,
          "internalType": "uint256",
          "name": "value",
          "type": "uint256"
        }
      ],
      "name": "Transfer",
      "type": "event"
    },
    {
      "inputs": [],
      "name": "DOMAIN_SEPARATOR",
      "outputs": [
        {
          "internalType": "bytes32",
          "name": "",
          "type": "bytes32"
        }
      ],
      "stateMutability": "view",
      "type": "function"
    },
    {
      "inputs": [],
      "name": "PERMIT_TYPEHASH",
      "outputs": [
        {
          "internalType": "bytes32",
          "name": "",
          "type": "bytes32"
        }
      ],
      "stateMutability": "view",
      "type": "function"
    },
    {
      "inputs": [
        {
          "internalType": "address",
          "name": "owner",
          "type": "address"
        },
        {
          "internalType": "address",
          "name": "spender",
          "type": "address"
        }
      ],
      "name": "allowance",
      "outputs": [
        {
          "internalType": "uint256",
          "name": "",
          "type": "uint256"
        }
      ],
      "stateMutability": "view",
      "type": "function"
    },
    {
      "inputs": [
        {
          "internalType": "address",
          "name": "spender",
          "type": "address"
        },
        {
          "internalType": "uint256",
          "name": "amount",
          "type": "uint256"
        }
      ],
      "name": "approve",
      "outputs": [
        {
          "internalType": "bool",
          "name": "",
          "type": "bool"
        }
      ],
      "stateMutability": "nonpayable",
      "type": "function"
    },
    {
      "inputs": [
        {
          "internalType": "address",
          "name": "account",
          "type": "address"
        }
      ],
      "name": "balanceOf",
      "outputs": [
        {
          "internalType": "uint256",
          "name": "",
          "type": "uint256"
        }
      ],
      "stateMutability": "view",
      "type": "function"
    },
    {
      "inputs": [
        {
          "internalType": "address",
          "name": "account",
          "type": "address"
        },
        {
          "internalType": "uint256",
          "name": "amount",
          "type": "uint256"
        }
      ],
      "name": "burn",
      "outputs": [],
      "stateMutability": "nonpayable",
      "type": "function"
    },
    {
      "inputs": [],
      "name": "decimals",
      "outputs": [
        {
          "internalType": "uint8",
          "name": "",
          "type": "uint8"
        }
      ],
      "stateMutability": "view",
      "type": "function"
    },
    {
      "inputs": [
        {
          "internalType": "address",
          "name": "spender",
          "type": "address"
        },
        {
          "internalType": "uint256",
          "name": "subtractedValue",
          "type": "uint256"
        }
      ],
      "name": "decreaseAllowance",
      "outputs": [
        {
          "internalType": "bool",
          "name": "",
          "type": "bool"
        }
      ],
      "stateMutability": "nonpayable",
      "type": "function"
    },
    {
      "inputs": [
        {
          "internalType": "address",
          "name": "spender",
          "type": "address"
        },
        {
          "internalType": "uint256",
          "name": "addedValue",
          "type": "uint256"
        }
      ],
      "name": "increaseAllowance",
      "outputs": [
        {
          "internalType": "bool",
          "name": "",
          "type": "bool"
        }
      ],
      "stateMutability": "nonpayable",
      "type": "function"
    },
    {
      "inputs": [
        {
          "internalType": "address",
          "name": "account",
          "type": "address"
        },
        {
          "internalType": "uint256",
          "name": "amount",
          "type": "uint256"
        }
      ],
      "name": "mint",
      "outputs": [],
      "stateMutability": "nonpayable",
      "type": "function"
    },
    {
      "inputs": [],
      "name": "name",
      "outputs": [
        {
          "internalType": "string",
          "name": "",
          "type": "string"
        }
      ],
      "stateMutability": "view",
      "type": "function"
    },
    {
      "inputs": [
        {
          "internalType": "address",
          "name": "",
          "type": "address"
        }
      ],
      "name": "nonces",
      "outputs": [
        {
          "internalType": "uint256",
          "name": "",
          "type": "uint256"
        }
      ],
      "stateMutability": "view",
      "type": "function"
    },
    {
      "inputs": [],
      "name": "owner",
      "outputs": [
        {
          "internalType": "address",
          "name": "",
          "type": "address"
        }
      ],
      "stateMutability": "view",
      "type": "function"
    },
    {
      "inputs": [
        {
          "internalType": "address",
          "name": "owner",
          "type": "address"
        },
        {
          "internalType": "address",
          "name": "spender",
          "type": "address"
        },
        {
          "internalType": "uint256",
          "name": "value",
          "type": "uint256"
        },
        {
          "internalType": "uint256",
          "name": "deadline",
          "type": "uint256"
        },
        {
          "internalType": "uint8",
          "name": "v",
          "type": "uint8"
        },
        {
          "internalType": "bytes32",
          "name": "r",
          "type": "bytes32"
        },
        {
          "internalType": "bytes32",
          "name": "s",
          "type": "bytes32"
        }
      ],
      "name": "permit",
      "outputs": [],
      "stateMutability": "nonpayable",
      "type": "function"
    },
    {
      "inputs": [],
      "name": "renounceOwnership",
      "outputs": [],
      "stateMutability": "nonpayable",
      "type": "function"
    },
    {
      "inputs": [
        {
          "internalType": "address",
          "name": "_marketplaceContractAddress",
          "type": "address"
        }
      ],
      "name": "setMarketplaceContractAddress",
      "outputs": [],
      "stateMutability": "nonpayable",
      "type": "function"
    },
    {
      "inputs": [],
      "name": "symbol",
      "outputs": [
        {
          "internalType": "string",
          "name": "",
          "type": "string"
        }
      ],
      "stateMutability": "view",
      "type": "function"
    },
    {
      "inputs": [],
      "name": "totalSupply",
      "outputs": [
        {
          "internalType": "uint256",
          "name": "",
          "type": "uint256"
        }
      ],
      "stateMutability": "view",
      "type": "function"
    },
    {
      "inputs": [
        {
          "internalType": "address",
          "name": "to",
          "type": "address"
        },
        {
          "internalType": "uint256",
          "name": "amount",
          "type": "uint256"
        }
      ],
      "name": "transfer",
      "outputs": [
        {
          "internalType": "bool",
          "name": "",
          "type": "bool"
        }
      ],
      "stateMutability": "nonpayable",
      "type": "function"
    },
    {
      "inputs": [
        {
          "internalType": "address",
          "name": "from",
          "type": "address"
        },
        {
          "internalType": "address",
          "name": "to",
          "type": "address"
        },
        {
          "internalType": "uint256",
          "name": "amount",
          "type": "uint256"
        }
      ],
      "name": "transferFrom",
      "outputs": [
        {
          "internalType": "bool",
          "name": "",
          "type": "bool"
        }
      ],
      "stateMutability": "nonpayable",
      "type": "function"
    },
    {
      "inputs": [
        {
          "internalType": "address",
          "name": "newOwner",
          "type": "address"
        }
      ],
      "name": "transferOwnership",
      "outputs": [],
      "stateMutability": "nonpayable",
      "type": "function"
    }
  ],
  "bytecode": "0x60806040523480156200001157600080fd5b506040518060400160405280601381526020017229b2b1bab93290193637b7b839902a37b5b2b760691b8152506040518060400160405280600381526020016214cc9360ea1b815250816003908051906020019062000072929190620001d5565b50805162000088906004906020840190620001d5565b505050620000a56200009f6200017f60201b60201c565b62000183565b604080518082018252601381527229b2b1bab93290193637b7b839902a37b5b2b760691b6020918201528151808301835260018152603160f81b9082015281517f91ab3d17e3a50a9d89e63fd30b92be7f5336b03b287bb946787a83a9d62a2766818301527ff39fb48223209f735b98e6e6f55ea4c73b1470630904a544035e91ec2a80b099818401527fc89efdaa54c0f20c7adf612882df0950f5a951637e0307cdcb4c672f298b8bc66060820152306080808301919091528351808303909101815260a09091019092528151910120600655620002b8565b3390565b600580546001600160a01b038381166001600160a01b0319831681179093556040519116919082907f8be0079c531659141344cd1fd0a4f28419497f9722a3daafe3b4186f6b6457e090600090a35050565b828054620001e3906200027b565b90600052602060002090601f01602090048101928262000207576000855562000252565b82601f106200022257805160ff191683800117855562000252565b8280016001018555821562000252579182015b828111156200025257825182559160200191906001019062000235565b506200026092915062000264565b5090565b5b8082111562000260576000815560010162000265565b600181811c908216806200029057607f821691505b60208210811415620002b257634e487b7160e01b600052602260045260246000fd5b50919050565b6110c380620002c86000396000f3fe608060405234801561001057600080fd5b50600436106101375760003560e01c806370a08231116100b85780639dc29fac1161007c5780639dc29fac14610290578063a457c2d7146102a3578063a9059cbb146102b6578063d505accf146102c9578063dd62ed3e146102dc578063f2fde38b146102ef57600080fd5b806370a082311461021c578063715018a6146102455780637ecebe001461024d5780638da5cb5b1461026d57806395d89b411461028857600080fd5b8063313ce567116100ff578063313ce567146101c95780633644e515146101d857806339509351146101e157806340c10f19146101f45780634ad320301461020957600080fd5b806306fdde031461013c578063095ea7b31461015a57806318160ddd1461017d57806323b872dd1461018f57806330adf81f146101a2575b600080fd5b610144610302565b6040516101519190610e0d565b60405180910390f35b61016d610168366004610e7e565b610394565b6040519015158152602001610151565b6002545b604051908152602001610151565b61016d61019d366004610ea8565b6103ac565b6101817f6e71edae12b1b97f4d1f60370fef10105fa2faae0126114a169c64845d6126c981565b60405160128152602001610151565b61018160065481565b61016d6101ef366004610e7e565b6103d0565b610207610202366004610e7e565b6103f2565b005b610207610217366004610ee4565b610433565b61018161022a366004610ee4565b6001600160a01b031660009081526020819052604090205490565b61020761045d565b61018161025b366004610ee4565b60076020526000908152604090205481565b6005546040516001600160a01b039091168152602001610151565b610144610471565b61020761029e366004610e7e565b610480565b61016d6102b1366004610e7e565b6104b4565b61016d6102c4366004610e7e565b61052f565b6102076102d7366004610f06565b61053d565b6101816102ea366004610f79565b610791565b6102076102fd366004610ee4565b6107bc565b60606003805461031190610fac565b80601f016020809104026020016040519081016040528092919081815260200182805461033d90610fac565b801561038a5780601f1061035f5761010080835404028352916020019161038a565b820191906000526020600020905b81548152906001019060200180831161036d57829003601f168201915b5050505050905090565b6000336103a2818585610835565b5060019392505050565b6000336103ba85828561095a565b6103c58585856109d4565b506001949350505050565b6000336103a28185856103e38383610791565b6103ed9190610ffd565b610835565b6008546001600160a01b031633146104255760405162461bcd60e51b815260040161041c90611015565b60405180910390fd5b61042f8282610b78565b5050565b61043b610c37565b600880546001600160a01b0319166001600160a01b0392909216919091179055565b610465610c37565b61046f6000610c91565b565b60606004805461031190610fac565b6008546001600160a01b031633146104aa5760405162461bcd60e51b815260040161041c90611015565b61042f8282610ce3565b600033816104c28286610791565b9050838110156105225760405162461bcd60e51b815260206004820152602560248201527f45524332303a2064656372656173656420616c6c6f77616e63652062656c6f77604482015264207a65726f60d81b606482015260840161041c565b6103c58286868403610835565b6000336103a28185856109d4565b6008546001600160a01b031633146105675760405162461bcd60e51b815260040161041c90611015565b428410156105b75760405162461bcd60e51b815260206004820152601860248201527f4552433230576974685065726d69743a20455850495245440000000000000000604482015260640161041c565b6006546001600160a01b038816600090815260076020526040812080549192917f6e71edae12b1b97f4d1f60370fef10105fa2faae0126114a169c64845d6126c9918b918b918b91908761060a83611072565b909155506040805160208101969096526001600160a01b0394851690860152929091166060840152608083015260a082015260c0810187905260e0016040516020818303038152906040528051906020012060405160200161068392919061190160f01b81526002810192909252602282015260420190565b60408051601f198184030181528282528051602091820120600080855291840180845281905260ff88169284019290925260608301869052608083018590529092509060019060a0016020604051602081039080840390855afa1580156106ee573d6000803e3d6000fd5b5050604051601f1901519150506001600160a01b038116158015906107245750886001600160a01b0316816001600160a01b0316145b61077b5760405162461bcd60e51b815260206004820152602260248201527f4552433230576974685065726d69743a20494e56414c49445f5349474e415455604482015261524560f01b606482015260840161041c565b610786898989610835565b505050505050505050565b6001600160a01b03918216600090815260016020908152604080832093909416825291909152205490565b6107c4610c37565b6001600160a01b0381166108295760405162461bcd60e51b815260206004820152602660248201527f4f776e61626c653a206e6577206f776e657220697320746865207a65726f206160448201526564647265737360d01b606482015260840161041c565b61083281610c91565b50565b6001600160a01b0383166108975760405162461bcd60e51b8152602060048201526024808201527f45524332303a20617070726f76652066726f6d20746865207a65726f206164646044820152637265737360e01b606482015260840161041c565b6001600160a01b0382166108f85760405162461bcd60e51b815260206004820152602260248201527f45524332303a20617070726f766520746f20746865207a65726f206164647265604482015261737360f01b606482015260840161041c565b6001600160a01b0383811660008181526001602090815260408083209487168084529482529182902085905590518481527f8c5be1e5ebec7d5bd14f71427d1e84f3dd0314c0f7b2291e5b200ac8c7c3b92591015b60405180910390a3505050565b60006109668484610791565b905060001981146109ce57818110156109c15760405162461bcd60e51b815260206004820152601d60248201527f45524332303a20696e73756666696369656e7420616c6c6f77616e6365000000604482015260640161041c565b6109ce8484848403610835565b50505050565b6001600160a01b038316610a385760405162461bcd60e51b815260206004820152602560248201527f45524332303a207472616e736665722066726f6d20746865207a65726f206164604482015264647265737360d81b606482015260840161041c565b6001600160a01b038216610a9a5760405162461bcd60e51b815260206004820152602360248201527f45524332303a207472616e7366657220746f20746865207a65726f206164647260448201526265737360e81b606482015260840161041c565b6001600160a01b03831660009081526020819052604090205481811015610b125760405162461bcd60e51b815260206004820152602660248201527f45524332303a207472616e7366657220616d6f756e7420657863656564732062604482015265616c616e636560d01b606482015260840161041c565b6001600160a01b03848116600081815260208181526040808320878703905593871680835291849020805487019055925185815290927fddf252ad1be2c89b69c2b068fc378daa952ba7f163c4a11628f55a4df523b3ef910160405180910390a36109ce565b6001600160a01b038216610bce5760405162461bcd60e51b815260206004820152601f60248201527f45524332303a206d696e7420746f20746865207a65726f206164647265737300604482015260640161041c565b8060026000828254610be09190610ffd565b90915550506001600160a01b038216600081815260208181526040808320805486019055518481527fddf252ad1be2c89b69c2b068fc378daa952ba7f163c4a11628f55a4df523b3ef910160405180910390a35050565b6005546001600160a01b0316331461046f5760405162461bcd60e51b815260206004820181905260248201527f4f776e61626c653a2063616c6c6572206973206e6f7420746865206f776e6572604482015260640161041c565b600580546001600160a01b038381166001600160a01b0319831681179093556040519116919082907f8be0079c531659141344cd1fd0a4f28419497f9722a3daafe3b4186f6b6457e090600090a35050565b6001600160a01b038216610d435760405162461bcd60e51b815260206004820152602160248201527f45524332303a206275726e2066726f6d20746865207a65726f206164647265736044820152607360f81b606482015260840161041c565b6001600160a01b03821660009081526020819052604090205481811015610db75760405162461bcd60e51b815260206004820152602260248201527f45524332303a206275726e20616d6f756e7420657863656564732062616c616e604482015261636560f01b606482015260840161041c565b6001600160a01b0383166000818152602081815260408083208686039055600280548790039055518581529192917fddf252ad1be2c89b69c2b068fc378daa952ba7f163c4a11628f55a4df523b3ef910161094d565b600060208083528351808285015260005b81811015610e3a57858101830151858201604001528201610e1e565b81811115610e4c576000604083870101525b50601f01601f1916929092016040019392505050565b80356001600160a01b0381168114610e7957600080fd5b919050565b60008060408385031215610e9157600080fd5b610e9a83610e62565b946020939093013593505050565b600080600060608486031215610ebd57600080fd5b610ec684610e62565b9250610ed460208501610e62565b9150604084013590509250925092565b600060208284031215610ef657600080fd5b610eff82610e62565b9392505050565b600080600080600080600060e0888a031215610f2157600080fd5b610f2a88610e62565b9650610f3860208901610e62565b95506040880135945060608801359350608088013560ff81168114610f5c57600080fd5b9699959850939692959460a0840135945060c09093013592915050565b60008060408385031215610f8c57600080fd5b610f9583610e62565b9150610fa360208401610e62565b90509250929050565b600181811c90821680610fc057607f821691505b60208210811415610fe157634e487b7160e01b600052602260045260246000fd5b50919050565b634e487b7160e01b600052601160045260246000fd5b6000821982111561101057611010610fe7565b500190565b60208082526039908201527f53326c3a204f6e6c7920746865206d61726b6574706c61636520636f6e74726160408201527f63742063616e2063616c6c20746869732066756e6374696f6e00000000000000606082015260800190565b600060001982141561108657611086610fe7565b506001019056fea26469706673582212200255eef2804165936778b01af4edd23d33d9e1ab896942292753cbeb75c1eea764736f6c63430008090033",
  "linkReferences": {},
  "deployedLinkReferences": {}
}